{
  "_format": "hh-sol-artifact-1",
  "contractName": "Ky0xMain",
  "sourceName": "contracts/Ky0xMain.sol",
  "abi": [
    {
      "anonymous": false,
      "inputs": [
        {
          "indexed": false,
          "internalType": "address",
          "name": "previousAdmin",
          "type": "address"
        },
        {
          "indexed": false,
          "internalType": "address",
          "name": "newAdmin",
          "type": "address"
        }
      ],
      "name": "AdminChanged",
      "type": "event"
    },
    {
      "anonymous": false,
      "inputs": [
        {
          "indexed": false,
          "internalType": "address",
          "name": "_erc20",
          "type": "address"
        },
        {
          "indexed": false,
          "internalType": "bool",
          "name": "_isAllowed",
          "type": "bool"
        },
        {
          "indexed": false,
          "internalType": "address",
          "name": "_oracleFeed",
          "type": "address"
        }
      ],
      "name": "AllowTokenPaymentEvent",
      "type": "event"
    },
    {
      "anonymous": false,
      "inputs": [
        {
          "indexed": true,
          "internalType": "address",
          "name": "beacon",
          "type": "address"
        }
      ],
      "name": "BeaconUpgraded",
      "type": "event"
    },
    {
      "anonymous": false,
      "inputs": [
        {
          "indexed": false,
          "internalType": "uint256",
          "name": "_dataType",
          "type": "uint256"
        },
        {
          "indexed": false,
          "internalType": "bool",
          "name": "_isActive",
          "type": "bool"
        }
      ],
      "name": "DataTypeEvent",
      "type": "event"
    },
    {
      "anonymous": false,
      "inputs": [],
      "name": "PausedEvent",
      "type": "event"
    },
    {
      "anonymous": false,
      "inputs": [
        {
          "indexed": true,
          "internalType": "bytes32",
          "name": "role",
          "type": "bytes32"
        },
        {
          "indexed": true,
          "internalType": "bytes32",
          "name": "previousAdminRole",
          "type": "bytes32"
        },
        {
          "indexed": true,
          "internalType": "bytes32",
          "name": "newAdminRole",
          "type": "bytes32"
        }
      ],
      "name": "RoleAdminChanged",
      "type": "event"
    },
    {
      "anonymous": false,
      "inputs": [
        {
          "indexed": true,
          "internalType": "bytes32",
          "name": "role",
          "type": "bytes32"
        },
        {
          "indexed": true,
          "internalType": "address",
          "name": "account",
          "type": "address"
        },
        {
          "indexed": true,
          "internalType": "address",
          "name": "sender",
          "type": "address"
        }
      ],
      "name": "RoleGranted",
      "type": "event"
    },
    {
      "anonymous": false,
      "inputs": [
        {
          "indexed": true,
          "internalType": "bytes32",
          "name": "role",
          "type": "bytes32"
        },
        {
          "indexed": true,
          "internalType": "address",
          "name": "account",
          "type": "address"
        },
        {
          "indexed": true,
          "internalType": "address",
          "name": "sender",
          "type": "address"
        }
      ],
      "name": "RoleRevoked",
      "type": "event"
    },
    {
      "anonymous": false,
      "inputs": [
        {
          "indexed": false,
          "internalType": "uint256",
          "name": "_oldCost",
          "type": "uint256"
        },
        {
          "indexed": false,
          "internalType": "uint256",
          "name": "_newCost",
          "type": "uint256"
        }
      ],
      "name": "TransactionCostUpdateEvent",
      "type": "event"
    },
    {
      "anonymous": false,
      "inputs": [
        {
          "indexed": false,
          "internalType": "address",
          "name": "_oldTreasury",
          "type": "address"
        },
        {
          "indexed": false,
          "internalType": "address",
          "name": "_newTreasury",
          "type": "address"
        }
      ],
      "name": "TreasuryUpdateEvent",
      "type": "event"
    },
    {
      "anonymous": false,
      "inputs": [],
      "name": "UnpausedEvent",
      "type": "event"
    },
    {
      "anonymous": false,
      "inputs": [
        {
          "indexed": true,
          "internalType": "address",
          "name": "implementation",
          "type": "address"
        }
      ],
      "name": "Upgraded",
      "type": "event"
    },
    {
      "inputs": [],
      "name": "DEFAULT_ADMIN_ROLE",
      "outputs": [
        {
          "internalType": "bytes32",
          "name": "",
          "type": "bytes32"
        }
      ],
      "stateMutability": "view",
      "type": "function"
    },
    {
      "inputs": [
        {
          "internalType": "address",
          "name": "_erc20",
          "type": "address"
        },
        {
          "internalType": "bool",
          "name": "_isAllowed",
          "type": "bool"
        },
        {
          "internalType": "address",
          "name": "_oracleFeed",
          "type": "address"
        }
      ],
      "name": "allowTokenPayment",
      "outputs": [],
      "stateMutability": "nonpayable",
      "type": "function"
    },
    {
      "inputs": [
        {
          "internalType": "address",
          "name": "_tokenPayment",
          "type": "address"
        }
      ],
      "name": "calculateAmountPayment",
      "outputs": [
        {
          "internalType": "uint256",
          "name": "",
          "type": "uint256"
        }
      ],
      "stateMutability": "view",
      "type": "function"
    },
    {
      "inputs": [
        {
          "internalType": "uint256",
          "name": "",
          "type": "uint256"
        }
      ],
      "name": "dataTypesMap",
      "outputs": [
        {
          "internalType": "bool",
          "name": "",
          "type": "bool"
        }
      ],
      "stateMutability": "view",
      "type": "function"
    },
    {
      "inputs": [
        {
          "internalType": "bytes32",
          "name": "_hashWalletSig",
          "type": "bytes32"
        },
        {
          "internalType": "address",
          "name": "_userAddr",
          "type": "address"
        },
        {
          "internalType": "uint256[]",
          "name": "_dataTypes",
          "type": "uint256[]"
        }
      ],
      "name": "getBlockNumbers",
      "outputs": [
        {
          "internalType": "uint256[]",
          "name": "",
          "type": "uint256[]"
        }
      ],
      "stateMutability": "view",
      "type": "function"
    },
    {
      "inputs": [
        {
          "internalType": "bytes32",
          "name": "_hashWalletSig",
          "type": "bytes32"
        },
        {
          "internalType": "uint256[]",
          "name": "_dataTypes",
          "type": "uint256[]"
        }
      ],
      "name": "getNonces",
      "outputs": [
        {
          "internalType": "uint8[]",
          "name": "",
          "type": "uint8[]"
        },
        {
          "internalType": "bytes32[]",
          "name": "",
          "type": "bytes32[]"
        }
      ],
      "stateMutability": "view",
      "type": "function"
    },
    {
      "inputs": [
        {
          "internalType": "bytes32",
          "name": "role",
          "type": "bytes32"
        }
      ],
      "name": "getRoleAdmin",
      "outputs": [
        {
          "internalType": "bytes32",
          "name": "",
          "type": "bytes32"
        }
      ],
      "stateMutability": "view",
      "type": "function"
    },
    {
      "inputs": [
        {
          "internalType": "bytes32",
          "name": "role",
          "type": "bytes32"
        },
        {
          "internalType": "address",
          "name": "account",
          "type": "address"
        }
      ],
      "name": "grantRole",
      "outputs": [],
      "stateMutability": "nonpayable",
      "type": "function"
    },
    {
      "inputs": [
        {
          "internalType": "bytes32",
          "name": "role",
          "type": "bytes32"
        },
        {
          "internalType": "address",
          "name": "account",
          "type": "address"
        }
      ],
      "name": "hasRole",
      "outputs": [
        {
          "internalType": "bool",
          "name": "",
          "type": "bool"
        }
      ],
      "stateMutability": "view",
      "type": "function"
    },
    {
      "inputs": [
        {
          "internalType": "address",
          "name": "_governance",
          "type": "address"
        },
        {
          "internalType": "address",
          "name": "_treasury",
          "type": "address"
        },
        {
          "internalType": "address",
          "name": "_attestor",
          "type": "address"
        },
        {
          "internalType": "address",
          "name": "_pauser",
          "type": "address"
        }
      ],
      "name": "initialize",
      "outputs": [],
      "stateMutability": "nonpayable",
      "type": "function"
    },
    {
      "inputs": [],
      "name": "pause",
      "outputs": [],
      "stateMutability": "nonpayable",
      "type": "function"
    },
    {
      "inputs": [],
      "name": "paused",
      "outputs": [
        {
          "internalType": "bool",
          "name": "",
          "type": "bool"
        }
      ],
      "stateMutability": "view",
      "type": "function"
    },
    {
      "inputs": [
        {
          "internalType": "bytes32[]",
          "name": "_hashWalletSigAndAddrs",
          "type": "bytes32[]"
        },
        {
          "internalType": "bytes32[]",
          "name": "_attestations",
          "type": "bytes32[]"
        },
        {
          "internalType": "bytes32[]",
          "name": "_nonces",
          "type": "bytes32[]"
        },
        {
          "internalType": "bytes32[]",
          "name": "_kIDs",
          "type": "bytes32[]"
        },
        {
          "internalType": "uint256[]",
          "name": "_dataTypes",
          "type": "uint256[]"
        }
      ],
      "name": "postAttributes",
      "outputs": [],
      "stateMutability": "nonpayable",
      "type": "function"
    },
    {
      "inputs": [
        {
          "internalType": "bytes32",
          "name": "_hashWalletSig",
          "type": "bytes32"
        },
        {
          "internalType": "address",
          "name": "_userAddr",
          "type": "address"
        },
        {
          "internalType": "bytes32[]",
          "name": "_nonceSigsKD",
          "type": "bytes32[]"
        },
        {
          "internalType": "uint256[]",
          "name": "_dataTypes",
          "type": "uint256[]"
        },
        {
          "internalType": "bytes32[]",
          "name": "_rawValues",
          "type": "bytes32[]"
        },
        {
          "internalType": "address",
          "name": "_tokenPayment",
          "type": "address"
        }
      ],
      "name": "queryAttributesMatch",
      "outputs": [
        {
          "internalType": "bytes32",
          "name": "",
          "type": "bytes32"
        },
        {
          "internalType": "uint8[]",
          "name": "",
          "type": "uint8[]"
        }
      ],
      "stateMutability": "nonpayable",
      "type": "function"
    },
    {
      "inputs": [
        {
          "internalType": "bytes32",
          "name": "role",
          "type": "bytes32"
        },
        {
          "internalType": "address",
          "name": "account",
          "type": "address"
        }
      ],
      "name": "renounceRole",
      "outputs": [],
      "stateMutability": "nonpayable",
      "type": "function"
    },
    {
      "inputs": [
        {
          "internalType": "bytes32",
          "name": "role",
          "type": "bytes32"
        },
        {
          "internalType": "address",
          "name": "account",
          "type": "address"
        }
      ],
      "name": "revokeRole",
      "outputs": [],
      "stateMutability": "nonpayable",
      "type": "function"
    },
    {
      "inputs": [
        {
          "internalType": "uint256",
          "name": "_dataType",
          "type": "uint256"
        },
        {
          "internalType": "bool",
          "name": "_isActive",
          "type": "bool"
        }
      ],
      "name": "setDataTypeStatus",
      "outputs": [],
      "stateMutability": "nonpayable",
      "type": "function"
    },
    {
      "inputs": [
        {
          "internalType": "uint256",
          "name": "_transactionCostUSD",
          "type": "uint256"
        }
      ],
      "name": "setTransactionCostUSD",
      "outputs": [],
      "stateMutability": "nonpayable",
      "type": "function"
    },
    {
      "inputs": [
        {
          "internalType": "address",
          "name": "_treasury",
          "type": "address"
        }
      ],
      "name": "setTreasury",
      "outputs": [],
      "stateMutability": "nonpayable",
      "type": "function"
    },
    {
      "inputs": [
        {
          "internalType": "bytes4",
          "name": "interfaceId",
          "type": "bytes4"
        }
      ],
      "name": "supportsInterface",
      "outputs": [
        {
          "internalType": "bool",
          "name": "",
          "type": "bool"
        }
      ],
      "stateMutability": "view",
      "type": "function"
    },
    {
      "inputs": [
        {
          "internalType": "address",
          "name": "",
          "type": "address"
        }
      ],
      "name": "tokenAllowedPaymentMap",
      "outputs": [
        {
          "internalType": "bool",
          "name": "",
          "type": "bool"
        }
      ],
      "stateMutability": "view",
      "type": "function"
    },
    {
      "inputs": [],
      "name": "transactionCostUSD",
      "outputs": [
        {
          "internalType": "uint256",
          "name": "",
          "type": "uint256"
        }
      ],
      "stateMutability": "view",
      "type": "function"
    },
    {
      "inputs": [],
      "name": "treasury",
      "outputs": [
        {
          "internalType": "address",
          "name": "",
          "type": "address"
        }
      ],
      "stateMutability": "view",
      "type": "function"
    },
    {
      "inputs": [],
      "name": "unpause",
      "outputs": [],
      "stateMutability": "nonpayable",
      "type": "function"
    },
    {
      "inputs": [
        {
          "internalType": "address",
          "name": "newImplementation",
          "type": "address"
        }
      ],
      "name": "upgradeTo",
      "outputs": [],
      "stateMutability": "nonpayable",
      "type": "function"
    },
    {
      "inputs": [
        {
          "internalType": "address",
          "name": "newImplementation",
          "type": "address"
        },
        {
          "internalType": "bytes",
          "name": "data",
          "type": "bytes"
        }
      ],
      "name": "upgradeToAndCall",
      "outputs": [],
      "stateMutability": "payable",
      "type": "function"
    }
  ],
  "bytecode": "0x608060405234801561001057600080fd5b50615fea80620000216000396000f3fe6080604052600436106101815760003560e01c806361d027b3116100d1578063cd56650a1161008a578063e668150b11610064578063e668150b14610585578063f0f44260146105c2578063f8c8765e146105eb578063fbbe800c1461061457610181565b8063cd56650a1461050a578063d547741f14610533578063deb57f441461055c57610181565b806361d027b3146103e65780636576c08e14610411578063703426c11461044e5780638456cb591461048b57806391d14854146104a2578063a217fddf146104df57610181565b80633659cfe61161013e5780634a585288116101185780634a585288146103395780634f1ef2861461037657806350926132146103925780635c975abb146103bb57610181565b80633659cfe6146102bb5780633f4ba83a146102e4578063499b1163146102fb57610181565b806301ffc9a7146101865780630cff104a146101c3578063248a9ca3146101ee5780632f2ff15d1461022b5780633231cd451461025457806336568abe14610292575b600080fd5b34801561019257600080fd5b506101ad60048036038101906101a89190614011565b61063d565b6040516101ba9190614ac0565b60405180910390f35b3480156101cf57600080fd5b506101d86106b7565b6040516101e59190615056565b60405180910390f35b3480156101fa57600080fd5b5061021560048036038101906102109190613e09565b6106bd565b6040516102229190614adb565b60405180910390f35b34801561023757600080fd5b50610252600480360381019061024d9190613e32565b6106dc565b005b34801561026057600080fd5b5061027b60048036038101906102769190613fb9565b610705565b604051610289929190614a89565b60405180910390f35b34801561029e57600080fd5b506102b960048036038101906102b49190613e32565b6109c5565b005b3480156102c757600080fd5b506102e260048036038101906102dd9190613bac565b610a48565b005b3480156102f057600080fd5b506102f9610a6f565b005b34801561030757600080fd5b50610322600480360381019061031d9190613e6e565b610b77565b604051610330929190614b1f565b60405180910390f35b34801561034557600080fd5b50610360600480360381019061035b919061407b565b610fe9565b60405161036d9190614ac0565b60405180910390f35b610390600480360381019061038b9190613c87565b611009565b005b34801561039e57600080fd5b506103b960048036038101906103b491906140cd565b611022565b005b3480156103c757600080fd5b506103d061113d565b6040516103dd9190614ac0565b60405180910390f35b3480156103f257600080fd5b506103fb611150565b60405161040891906149b5565b60405180910390f35b34801561041d57600080fd5b5061043860048036038101906104339190613bac565b611176565b6040516104459190615056565b60405180910390f35b34801561045a57600080fd5b5061047560048036038101906104709190613bac565b611384565b6040516104829190614ac0565b60405180910390f35b34801561049757600080fd5b506104a06113a4565b005b3480156104ae57600080fd5b506104c960048036038101906104c49190613e32565b6114ac565b6040516104d69190614ac0565b60405180910390f35b3480156104eb57600080fd5b506104f4611516565b6040516105019190614adb565b60405180910390f35b34801561051657600080fd5b50610531600480360381019061052c9190613cdb565b61151d565b005b34801561053f57600080fd5b5061055a60048036038101906105559190613e32565b611822565b005b34801561056857600080fd5b50610583600480360381019061057e919061407b565b61184b565b005b34801561059157600080fd5b506105ac60048036038101906105a79190613f4d565b6119b7565b6040516105b99190614a67565b60405180910390f35b3480156105ce57600080fd5b506105e960048036038101906105e49190613bac565b611b2d565b005b3480156105f757600080fd5b50610612600480360381019061060d9190613bd5565b611d1f565b005b34801561062057600080fd5b5061063b60048036038101906106369190613c38565b6120df565b005b60007f7965db0b000000000000000000000000000000000000000000000000000000007bffffffffffffffffffffffffffffffffffffffffffffffffffffffff1916827bffffffffffffffffffffffffffffffffffffffffffffffffffffffff191614806106b057506106af8261261c565b5b9050919050565b606b5481565b6000806000838152602001908152602001600020600101549050919050565b6106e5826106bd565b6106f6816106f1612686565b61268e565b610700838361272b565b505050565b60608060008484905067ffffffffffffffff81111561074d577f4e487b7100000000000000000000000000000000000000000000000000000000600052604160045260246000fd5b60405190808252806020026020018201604052801561077b5781602001602082028036833780820191505090505b50905060008585905067ffffffffffffffff8111156107c3577f4e487b7100000000000000000000000000000000000000000000000000000000600052604160045260246000fd5b6040519080825280602002602001820160405280156107f15781602001602082028036833780820191505090505b50905060008733604051602001610809929190614af6565b604051602081830303815290604052805190602001209050600080600090505b888890508110156109b25761087d838a8a84818110610871577f4e487b7100000000000000000000000000000000000000000000000000000000600052603260045260246000fd5b9050602002013561280b565b9091925090505080925050818582815181106108c2577f4e487b7100000000000000000000000000000000000000000000000000000000600052603260045260246000fd5b6020026020010181815250506000801b82141561091757600180811115610912577f4e487b7100000000000000000000000000000000000000000000000000000000600052602160045260246000fd5b610952565b60006001811115610951577f4e487b7100000000000000000000000000000000000000000000000000000000600052602160045260246000fd5b5b84828151811061098b577f4e487b7100000000000000000000000000000000000000000000000000000000600052603260045260246000fd5b602002602001019060ff16908160ff168152505080806109aa90615600565b915050610829565b5082849550955050505050935093915050565b6109cd612686565b73ffffffffffffffffffffffffffffffffffffffff168173ffffffffffffffffffffffffffffffffffffffff1614610a3a576040517f08c379a0000000000000000000000000000000000000000000000000000000008152600401610a3190615016565b60405180910390fd5b610a4482826128bf565b5050565b610a51816129a0565b610a6c816040518060200160405280600081525060006129ef565b50565b610a997f65d7a28e3265b37a6474929f336521b332c1681b933f6cb9f3376673440d862a336114ac565b610ad8576040517f08c379a0000000000000000000000000000000000000000000000000000000008152600401610acf90614f96565b60405180910390fd5b60011515606c60009054906101000a900460ff16151514610b2e576040517f08c379a0000000000000000000000000000000000000000000000000000000008152600401610b2590614e16565b60405180910390fd5b6000606c60006101000a81548160ff0219169083151502179055507f06816474b0021c4d07945d434c3c6403f2e1f70120c8c7b43993bd36805d03ef60405160405180910390a1565b600060608686905089899050148015610b9557508484905089899050145b610bd4576040517f08c379a0000000000000000000000000000000000000000000000000000000008152600401610bcb90614cd6565b60405180910390fd5b610bdd83612bc0565b60008585905067ffffffffffffffff811115610c22577f4e487b7100000000000000000000000000000000000000000000000000000000600052604160045260246000fd5b604051908082528060200260200182016040528015610c505781602001602082028036833780820191505090505b50905060008060008e8e604051602001610c6b929190614af6565b60405160208183030381529060405280519060200120905060005b8b8b9050811015610fd057606660008d8d84818110610cce577f4e487b7100000000000000000000000000000000000000000000000000000000600052603260045260246000fd5b90506020020135815260200190815260200160002060009054906101000a900460ff16610d30576040517f08c379a0000000000000000000000000000000000000000000000000000000008152600401610d2790614c16565b60405180910390fd5b6067600083815260200190815260200160002060008d8d84818110610d7e577f4e487b7100000000000000000000000000000000000000000000000000000000600052603260045260246000fd5b90506020020135815260200190815260200160002092506000801b83600201541415610e305760006002811115610dde577f4e487b7100000000000000000000000000000000000000000000000000000000600052602160045260246000fd5b858281518110610e17577f4e487b7100000000000000000000000000000000000000000000000000000000600052603260045260246000fd5b602002602001019060ff16908160ff1681525050610fbd565b600083600201548f8f84818110610e70577f4e487b7100000000000000000000000000000000000000000000000000000000600052603260045260246000fd5b90506020020135848d8d86818110610eb1577f4e487b7100000000000000000000000000000000000000000000000000000000600052603260045260246000fd5b90506020020135604051602001610ecb9493929190614b4f565b60405160208183030381529060405280519060200120905080846000015414610f2c57600280811115610f27577f4e487b7100000000000000000000000000000000000000000000000000000000600052602160045260246000fd5b610f67565b60016002811115610f66577f4e487b7100000000000000000000000000000000000000000000000000000000600052602160045260246000fd5b5b868381518110610fa0577f4e487b7100000000000000000000000000000000000000000000000000000000600052603260045260246000fd5b602002602001019060ff16908160ff168152505083600201549450505b8080610fc890615600565b915050610c86565b5082849550955050505050995099975050505050505050565b60666020528060005260406000206000915054906101000a900460ff1681565b611012826129a0565b61101e828260016129ef565b5050565b61102f6000801b336114ac565b61106e576040517f08c379a000000000000000000000000000000000000000000000000000000000815260040161106590614d36565b60405180910390fd5b8015156066600084815260200190815260200160002060009054906101000a900460ff16151514156110d5576040517f08c379a00000000000000000000000000000000000000000000000000000000081526004016110cc90614e96565b60405180910390fd5b806066600084815260200190815260200160002060006101000a81548160ff0219169083151502179055507fe396a5aa5e45159af8cfc7f403d340c685f7552874ea096eac63bf4c1f6dd59f8282604051611131929190615071565b60405180910390a15050565b606c60009054906101000a900460ff1681565b606a60009054906101000a900473ffffffffffffffffffffffffffffffffffffffff1681565b6000606860008373ffffffffffffffffffffffffffffffffffffffff1673ffffffffffffffffffffffffffffffffffffffff16815260200190815260200160002060009054906101000a900460ff16611204576040517f08c379a00000000000000000000000000000000000000000000000000000000081526004016111fb90614bb6565b60405180910390fd5b600061120f83612d7f565b9050600083905060008213611259576040517f08c379a000000000000000000000000000000000000000000000000000000000815260040161125090614c96565b60405180910390fd5b601261126485612e77565b60ff1611156112a8576040517f08c379a000000000000000000000000000000000000000000000000000000000815260040161129f90614bd6565b60405180910390fd5b6000826112b486612e77565b60126112c09190615484565b600a6112cc919061530c565b8373ffffffffffffffffffffffffffffffffffffffff1663313ce5676040518163ffffffff1660e01b815260040160206040518083038186803b15801561131257600080fd5b505afa158015611326573d6000803e3d6000fd5b505050506040513d601f19601f8201168201806040525081019061134a9190614180565b600a611356919061530c565b606b54611363919061542a565b61136d9190615288565b6113779190615288565b9050809350505050919050565b60686020528060005260406000206000915054906101000a900460ff1681565b6113ce7f65d7a28e3265b37a6474929f336521b332c1681b933f6cb9f3376673440d862a336114ac565b61140d576040517f08c379a000000000000000000000000000000000000000000000000000000000815260040161140490614f96565b60405180910390fd5b60001515606c60009054906101000a900460ff16151514611463576040517f08c379a000000000000000000000000000000000000000000000000000000000815260040161145a90614fb6565b60405180910390fd5b6001606c60006101000a81548160ff0219169083151502179055507f7a81fbd03590051e5303bffa6481eb76ac6081d4a2d96aca8b1af9b5c8028fed60405160405180910390a1565b600080600084815260200190815260200160002060000160008373ffffffffffffffffffffffffffffffffffffffff1673ffffffffffffffffffffffffffffffffffffffff16815260200190815260200160002060009054906101000a900460ff16905092915050565b6000801b81565b60001515606c60009054906101000a900460ff16151514611573576040517f08c379a000000000000000000000000000000000000000000000000000000000815260040161156a90614fd6565b60405180910390fd5b61159d7fa7e0cd0f2772b23ee4c329892293a6bd99d48c306b094d6d008c9a8bb8b731e4336114ac565b6115dc576040517f08c379a00000000000000000000000000000000000000000000000000000000081526004016115d390614c76565b60405180910390fd5b6000888890501180156115f25750600a88889050105b611631576040517f08c379a000000000000000000000000000000000000000000000000000000000815260040161162890614cb6565b60405180910390fd5b878790508a8a905014801561164b5750858590508a8a9050145b801561165c5750838390508a8a9050145b801561166d5750818190508a8a9050145b6116ac576040517f08c379a00000000000000000000000000000000000000000000000000000000081526004016116a390614e36565b60405180910390fd5b60005b88889050811015611815576118028b8b838181106116f6577f4e487b7100000000000000000000000000000000000000000000000000000000600052603260045260246000fd5b905060200201358a8a84818110611736577f4e487b7100000000000000000000000000000000000000000000000000000000600052603260045260246000fd5b90506020020135898985818110611776577f4e487b7100000000000000000000000000000000000000000000000000000000600052603260045260246000fd5b905060200201358888868181106117b6577f4e487b7100000000000000000000000000000000000000000000000000000000600052603260045260246000fd5b905060200201358787878181106117f6577f4e487b7100000000000000000000000000000000000000000000000000000000600052603260045260246000fd5b90506020020135612f5d565b808061180d90615600565b9150506116af565b5050505050505050505050565b61182b826106bd565b61183c81611837612686565b61268e565b61184683836128bf565b505050565b6118586000801b336114ac565b611897576040517f08c379a000000000000000000000000000000000000000000000000000000000815260040161188e90614d36565b60405180910390fd5b80606b5414156118dc576040517f08c379a00000000000000000000000000000000000000000000000000000000081526004016118d390615036565b60405180910390fd5b678ac7230489e800008110611926576040517f08c379a000000000000000000000000000000000000000000000000000000000815260040161191d90614cf6565b60405180910390fd5b600081101561196a576040517f08c379a000000000000000000000000000000000000000000000000000000000815260040161196190614eb6565b60405180910390fd5b6000606b54905081606b819055507f8b225804c60832661169b8ba575633ea54b5942c8e9afbef8f0ac6721202c9d581606b546040516119ab92919061509a565b60405180910390a15050565b606060008383905067ffffffffffffffff8111156119fe577f4e487b7100000000000000000000000000000000000000000000000000000000600052604160045260246000fd5b604051908082528060200260200182016040528015611a2c5781602001602082028036833780820191505090505b50905060008686604051602001611a44929190614af6565b604051602081830303815290604052805190602001209050600080600090505b86869050811015611b1e57611ab883888884818110611aac577f4e487b7100000000000000000000000000000000000000000000000000000000600052603260045260246000fd5b9050602002013561280b565b9091925090915090508092505081848281518110611aff577f4e487b7100000000000000000000000000000000000000000000000000000000600052603260045260246000fd5b6020026020010181815250508080611b1690615600565b915050611a64565b50829350505050949350505050565b611b3a6000801b336114ac565b611b79576040517f08c379a0000000000000000000000000000000000000000000000000000000008152600401611b7090614d36565b60405180910390fd5b600073ffffffffffffffffffffffffffffffffffffffff168173ffffffffffffffffffffffffffffffffffffffff161415611be9576040517f08c379a0000000000000000000000000000000000000000000000000000000008152600401611be090614d96565b60405180910390fd5b606a60009054906101000a900473ffffffffffffffffffffffffffffffffffffffff1673ffffffffffffffffffffffffffffffffffffffff168173ffffffffffffffffffffffffffffffffffffffff161415611c7a576040517f08c379a0000000000000000000000000000000000000000000000000000000008152600401611c7190614ff6565b60405180910390fd5b6000606a60009054906101000a900473ffffffffffffffffffffffffffffffffffffffff16905081606a60006101000a81548173ffffffffffffffffffffffffffffffffffffffff021916908373ffffffffffffffffffffffffffffffffffffffff1602179055507fd3249cb37ead034d851af87ea663cc239fc20e801a85f4d311cb77edf4151e1d8183604051611d139291906149d0565b60405180910390a15050565b60018054906101000a900460ff1680611d455750600160009054906101000a900460ff16155b611d84576040517f08c379a0000000000000000000000000000000000000000000000000000000008152600401611d7b90614df6565b60405180910390fd5b600060018054906101000a900460ff161590508015611dd25760018060016101000a81548160ff02191690831515021790555060018060006101000a81548160ff0219169083151502179055505b600073ffffffffffffffffffffffffffffffffffffffff168473ffffffffffffffffffffffffffffffffffffffff161415611e42576040517f08c379a0000000000000000000000000000000000000000000000000000000008152600401611e3990614d96565b60405180910390fd5b600073ffffffffffffffffffffffffffffffffffffffff168573ffffffffffffffffffffffffffffffffffffffff161415611eb2576040517f08c379a0000000000000000000000000000000000000000000000000000000008152600401611ea990614d16565b60405180910390fd5b600073ffffffffffffffffffffffffffffffffffffffff168373ffffffffffffffffffffffffffffffffffffffff161415611f22576040517f08c379a0000000000000000000000000000000000000000000000000000000008152600401611f1990614f36565b60405180910390fd5b600073ffffffffffffffffffffffffffffffffffffffff168273ffffffffffffffffffffffffffffffffffffffff161415611f92576040517f08c379a0000000000000000000000000000000000000000000000000000000008152600401611f8990614db6565b60405180910390fd5b83606a60006101000a81548173ffffffffffffffffffffffffffffffffffffffff021916908373ffffffffffffffffffffffffffffffffffffffff160217905550611fe06000801b866130a7565b61200a7fa7e0cd0f2772b23ee4c329892293a6bd99d48c306b094d6d008c9a8bb8b731e4846130a7565b6120347f65d7a28e3265b37a6474929f336521b332c1681b933f6cb9f3376673440d862a836130a7565b60016066600080815260200190815260200160002060006101000a81548160ff0219169083151502179055506001606660006001815260200190815260200160002060006101000a81548160ff021916908315150217905550670de0b6b3a7640000606b819055506000606c60006101000a81548160ff02191690831515021790555080156120d85760006001806101000a81548160ff0219169083151502179055505b5050505050565b6120ec6000801b336114ac565b61212b576040517f08c379a000000000000000000000000000000000000000000000000000000000815260040161212290614d36565b60405180910390fd5b811515606860008573ffffffffffffffffffffffffffffffffffffffff1673ffffffffffffffffffffffffffffffffffffffff16815260200190815260200160002060009054906101000a900460ff1615151415806122155750606960008473ffffffffffffffffffffffffffffffffffffffff1673ffffffffffffffffffffffffffffffffffffffff16815260200190815260200160002060009054906101000a900473ffffffffffffffffffffffffffffffffffffffff1673ffffffffffffffffffffffffffffffffffffffff168173ffffffffffffffffffffffffffffffffffffffff1614155b612254576040517f08c379a000000000000000000000000000000000000000000000000000000000815260040161224b90614d56565b60405180910390fd5b600073ffffffffffffffffffffffffffffffffffffffff168373ffffffffffffffffffffffffffffffffffffffff1614156122c4576040517f08c379a00000000000000000000000000000000000000000000000000000000081526004016122bb90614e76565b60405180910390fd5b600073ffffffffffffffffffffffffffffffffffffffff168173ffffffffffffffffffffffffffffffffffffffff161415612334576040517f08c379a000000000000000000000000000000000000000000000000000000000815260040161232b90614f56565b60405180910390fd5b6000839050600082905060128173ffffffffffffffffffffffffffffffffffffffff1663313ce5676040518163ffffffff1660e01b815260040160206040518083038186803b15801561238657600080fd5b505afa15801561239a573d6000803e3d6000fd5b505050506040513d601f19601f820116820180604052508101906123be9190614180565b60ff161115612402576040517f08c379a00000000000000000000000000000000000000000000000000000000081526004016123f990614dd6565b60405180910390fd5b8073ffffffffffffffffffffffffffffffffffffffff16637284e4166040518163ffffffff1660e01b815260040160006040518083038186803b15801561244857600080fd5b505afa15801561245c573d6000803e3d6000fd5b505050506040513d6000823e3d601f19601f82011682018060405250810190612485919061403a565b508173ffffffffffffffffffffffffffffffffffffffff166318160ddd6040518163ffffffff1660e01b815260040160206040518083038186803b1580156124cc57600080fd5b505afa1580156124e0573d6000803e3d6000fd5b505050506040513d601f19601f8201168201806040525081019061250491906140a4565b5083606860008773ffffffffffffffffffffffffffffffffffffffff1673ffffffffffffffffffffffffffffffffffffffff16815260200190815260200160002060006101000a81548160ff02191690831515021790555080606960008773ffffffffffffffffffffffffffffffffffffffff1673ffffffffffffffffffffffffffffffffffffffff16815260200190815260200160002060006101000a81548173ffffffffffffffffffffffffffffffffffffffff021916908373ffffffffffffffffffffffffffffffffffffffff1602179055507f9bc9087dc26a9fb86164103b1f1dfad138792783f9e85d3883751bc78f492b6c85858560405161260d93929190614a30565b60405180910390a15050505050565b60007f01ffc9a7000000000000000000000000000000000000000000000000000000007bffffffffffffffffffffffffffffffffffffffffffffffffffffffff1916827bffffffffffffffffffffffffffffffffffffffffffffffffffffffff1916149050919050565b600033905090565b61269882826114ac565b612727576126bd8173ffffffffffffffffffffffffffffffffffffffff1660146130b5565b6126cb8360001c60206130b5565b6040516020016126dc92919061497b565b6040516020818303038152906040526040517f08c379a000000000000000000000000000000000000000000000000000000000815260040161271e9190614b94565b60405180910390fd5b5050565b61273582826114ac565b61280757600160008084815260200190815260200160002060000160008373ffffffffffffffffffffffffffffffffffffffff1673ffffffffffffffffffffffffffffffffffffffff16815260200190815260200160002060006101000a81548160ff0219169083151502179055506127ac612686565b73ffffffffffffffffffffffffffffffffffffffff168173ffffffffffffffffffffffffffffffffffffffff16837f2f8788117e7eff1d82e926ec794901d17c78024a50270940304540a733656f0d60405160405180910390a45b5050565b6000806000806066600086815260200190815260200160002060009054906101000a900460ff16612871576040517f08c379a000000000000000000000000000000000000000000000000000000000815260040161286890614c16565b60405180910390fd5b60006067600088815260200190815260200160002060008781526020019081526020016000209050806000015481600101548260020154836003015494509450945094505092959194509250565b6128c982826114ac565b1561299c57600080600084815260200190815260200160002060000160008373ffffffffffffffffffffffffffffffffffffffff1673ffffffffffffffffffffffffffffffffffffffff16815260200190815260200160002060006101000a81548160ff021916908315150217905550612941612686565b73ffffffffffffffffffffffffffffffffffffffff168173ffffffffffffffffffffffffffffffffffffffff16837ff6391f5c32d9c69d2a47ea670b442974b53935d1edc7fd64eb21e047a839171b60405160405180910390a45b5050565b6129ad6000801b336114ac565b6129ec576040517f08c379a00000000000000000000000000000000000000000000000000000000081526004016129e390614d36565b60405180910390fd5b50565b60006129f96133af565b9050612a0484613406565b600083511180612a115750815b15612a2257612a2084846134bf565b505b6000612a507f4910fdfa16fed3260ed0e7147f7cc6da11a60208b5b9406d12a635614ffd914360001b6135a3565b90508060000160009054906101000a900460ff16612bb95760018160000160006101000a81548160ff021916908315150217905550612b1c8583604051602401612a9a91906149b5565b6040516020818303038152906040527f3659cfe6000000000000000000000000000000000000000000000000000000007bffffffffffffffffffffffffffffffffffffffffffffffffffffffff19166020820180517bffffffffffffffffffffffffffffffffffffffffffffffffffffffff83818316178352505050506134bf565b5060008160000160006101000a81548160ff021916908315150217905550612b426133af565b73ffffffffffffffffffffffffffffffffffffffff168273ffffffffffffffffffffffffffffffffffffffff1614612baf576040517f08c379a0000000000000000000000000000000000000000000000000000000008152600401612ba690614c56565b60405180910390fd5b612bb8856135ad565b5b5050505050565b606860008273ffffffffffffffffffffffffffffffffffffffff1673ffffffffffffffffffffffffffffffffffffffff16815260200190815260200160002060009054906101000a900460ff16612c4c576040517f08c379a0000000000000000000000000000000000000000000000000000000008152600401612c4390614bb6565b60405180910390fd5b60008190506000612c5c83611176565b9050808273ffffffffffffffffffffffffffffffffffffffff1663dd62ed3e33306040518363ffffffff1660e01b8152600401612c9a9291906149d0565b60206040518083038186803b158015612cb257600080fd5b505afa158015612cc6573d6000803e3d6000fd5b505050506040513d601f19601f82011682018060405250810190612cea91906140a4565b1015612d2b576040517f08c379a0000000000000000000000000000000000000000000000000000000008152600401612d2290614c36565b60405180910390fd5b612d7a33606a60009054906101000a900473ffffffffffffffffffffffffffffffffffffffff16838573ffffffffffffffffffffffffffffffffffffffff166135fc909392919063ffffffff16565b505050565b600080606960008473ffffffffffffffffffffffffffffffffffffffff1673ffffffffffffffffffffffffffffffffffffffff16815260200190815260200160002060009054906101000a900473ffffffffffffffffffffffffffffffffffffffff1673ffffffffffffffffffffffffffffffffffffffff1663feaf968c6040518163ffffffff1660e01b815260040160a06040518083038186803b158015612e2757600080fd5b505afa158015612e3b573d6000803e3d6000fd5b505050506040513d601f19601f82011682018060405250810190612e5f9190614109565b90919293509091509050508091505080915050919050565b6000606960008373ffffffffffffffffffffffffffffffffffffffff1673ffffffffffffffffffffffffffffffffffffffff16815260200190815260200160002060009054906101000a900473ffffffffffffffffffffffffffffffffffffffff1673ffffffffffffffffffffffffffffffffffffffff1663313ce5676040518163ffffffff1660e01b815260040160206040518083038186803b158015612f1e57600080fd5b505afa158015612f32573d6000803e3d6000fd5b505050506040513d601f19601f82011682018060405250810190612f569190614180565b9050919050565b6066600082815260200190815260200160002060009054906101000a900460ff16612fbd576040517f08c379a0000000000000000000000000000000000000000000000000000000008152600401612fb490614c16565b60405180910390fd5b6000801b8314158015612fd357506000801b8414155b8015612fe257506000801b8514155b8015612ff157506000801b8214155b613030576040517f08c379a000000000000000000000000000000000000000000000000000000000815260040161302790614ef6565b60405180910390fd5b604051806080016040528085815260200184815260200183815260200143815250606760008781526020019081526020016000206000838152602001908152602001600020600082015181600001556020820151816001015560408201518160020155606082015181600301559050505050505050565b6130b1828261272b565b5050565b6060600060028360026130c8919061542a565b6130d29190615232565b67ffffffffffffffff811115613111577f4e487b7100000000000000000000000000000000000000000000000000000000600052604160045260246000fd5b6040519080825280601f01601f1916602001820160405280156131435781602001600182028036833780820191505090505b5090507f3000000000000000000000000000000000000000000000000000000000000000816000815181106131a1577f4e487b7100000000000000000000000000000000000000000000000000000000600052603260045260246000fd5b60200101907effffffffffffffffffffffffffffffffffffffffffffffffffffffffffffff1916908160001a9053507f78000000000000000000000000000000000000000000000000000000000000008160018151811061322b577f4e487b7100000000000000000000000000000000000000000000000000000000600052603260045260246000fd5b60200101907effffffffffffffffffffffffffffffffffffffffffffffffffffffffffffff1916908160001a9053506000600184600261326b919061542a565b6132759190615232565b90505b6001811115613361577f3031323334353637383961626364656600000000000000000000000000000000600f8616601081106132dd577f4e487b7100000000000000000000000000000000000000000000000000000000600052603260045260246000fd5b1a60f81b82828151811061331a577f4e487b7100000000000000000000000000000000000000000000000000000000600052603260045260246000fd5b60200101907effffffffffffffffffffffffffffffffffffffffffffffffffffffffffffff1916908160001a905350600485901c94508061335a906155a5565b9050613278565b50600084146133a5576040517f08c379a000000000000000000000000000000000000000000000000000000000815260040161339c90614bf6565b60405180910390fd5b8091505092915050565b60006133dd7f360894a13ba1a3210667c828492db98dca3e2076cc3735a920a3ca505d382bbc60001b613685565b60000160009054906101000a900473ffffffffffffffffffffffffffffffffffffffff16905090565b61340f8161368f565b61344e576040517f08c379a000000000000000000000000000000000000000000000000000000000815260040161344590614e56565b60405180910390fd5b8061347b7f360894a13ba1a3210667c828492db98dca3e2076cc3735a920a3ca505d382bbc60001b613685565b60000160006101000a81548173ffffffffffffffffffffffffffffffffffffffff021916908373ffffffffffffffffffffffffffffffffffffffff16021790555050565b60606134ca8361368f565b613509576040517f08c379a000000000000000000000000000000000000000000000000000000000815260040161350090614ed6565b60405180910390fd5b6000808473ffffffffffffffffffffffffffffffffffffffff16846040516135319190614964565b600060405180830381855af49150503d806000811461356c576040519150601f19603f3d011682016040523d82523d6000602084013e613571565b606091505b50915091506135998282604051806060016040528060278152602001615f8e602791396136a2565b9250505092915050565b6000819050919050565b6135b681613406565b8073ffffffffffffffffffffffffffffffffffffffff167fbc7cd75a20ee27fd9adebab32041f755214dbc6bffa90cc0225b39da2e5c2d3b60405160405180910390a250565b61367f846323b872dd60e01b85858560405160240161361d939291906149f9565b604051602081830303815290604052907bffffffffffffffffffffffffffffffffffffffffffffffffffffffff19166020820180517bffffffffffffffffffffffffffffffffffffffffffffffffffffffff8381831617835250505050613709565b50505050565b6000819050919050565b600080823b905060008111915050919050565b606083156136b257829050613702565b6000835111156136c55782518084602001fd5b816040517f08c379a00000000000000000000000000000000000000000000000000000000081526004016136f99190614b94565b60405180910390fd5b9392505050565b600061376b826040518060400160405280602081526020017f5361666545524332303a206c6f772d6c6576656c2063616c6c206661696c65648152508573ffffffffffffffffffffffffffffffffffffffff166137d09092919063ffffffff16565b90506000815111156137cb578080602001905181019061378b9190613de0565b6137ca576040517f08c379a00000000000000000000000000000000000000000000000000000000081526004016137c190614f76565b60405180910390fd5b5b505050565b60606137df84846000856137e8565b90509392505050565b60608247101561382d576040517f08c379a000000000000000000000000000000000000000000000000000000000815260040161382490614d76565b60405180910390fd5b613836856138fc565b613875576040517f08c379a000000000000000000000000000000000000000000000000000000000815260040161386c90614f16565b60405180910390fd5b6000808673ffffffffffffffffffffffffffffffffffffffff16858760405161389e9190614964565b60006040518083038185875af1925050503d80600081146138db576040519150601f19603f3d011682016040523d82523d6000602084013e6138e0565b606091505b50915091506138f082828661390f565b92505050949350505050565b600080823b905060008111915050919050565b6060831561391f5782905061396f565b6000835111156139325782518084602001fd5b816040517f08c379a00000000000000000000000000000000000000000000000000000000081526004016139669190614b94565b60405180910390fd5b9392505050565b6000613989613984846150e8565b6150c3565b9050828152602081018484840111156139a157600080fd5b6139ac848285615563565b509392505050565b60006139c76139c284615119565b6150c3565b9050828152602081018484840111156139df57600080fd5b6139ea848285615572565b509392505050565b600081359050613a0181615ed5565b92915050565b60008083601f840112613a1957600080fd5b8235905067ffffffffffffffff811115613a3257600080fd5b602083019150836020820283011115613a4a57600080fd5b9250929050565b60008083601f840112613a6357600080fd5b8235905067ffffffffffffffff811115613a7c57600080fd5b602083019150836020820283011115613a9457600080fd5b9250929050565b600081359050613aaa81615eec565b92915050565b600081519050613abf81615eec565b92915050565b600081359050613ad481615f03565b92915050565b600081359050613ae981615f1a565b92915050565b600082601f830112613b0057600080fd5b8135613b10848260208601613976565b91505092915050565b600081519050613b2881615f31565b92915050565b600082601f830112613b3f57600080fd5b8151613b4f8482602086016139b4565b91505092915050565b600081359050613b6781615f48565b92915050565b600081519050613b7c81615f48565b92915050565b600081519050613b9181615f76565b92915050565b600081519050613ba681615f5f565b92915050565b600060208284031215613bbe57600080fd5b6000613bcc848285016139f2565b91505092915050565b60008060008060808587031215613beb57600080fd5b6000613bf9878288016139f2565b9450506020613c0a878288016139f2565b9350506040613c1b878288016139f2565b9250506060613c2c878288016139f2565b91505092959194509250565b600080600060608486031215613c4d57600080fd5b6000613c5b868287016139f2565b9350506020613c6c86828701613a9b565b9250506040613c7d868287016139f2565b9150509250925092565b60008060408385031215613c9a57600080fd5b6000613ca8858286016139f2565b925050602083013567ffffffffffffffff811115613cc557600080fd5b613cd185828601613aef565b9150509250929050565b60008060008060008060008060008060a08b8d031215613cfa57600080fd5b60008b013567ffffffffffffffff811115613d1457600080fd5b613d208d828e01613a07565b9a509a505060208b013567ffffffffffffffff811115613d3f57600080fd5b613d4b8d828e01613a07565b985098505060408b013567ffffffffffffffff811115613d6a57600080fd5b613d768d828e01613a07565b965096505060608b013567ffffffffffffffff811115613d9557600080fd5b613da18d828e01613a07565b945094505060808b013567ffffffffffffffff811115613dc057600080fd5b613dcc8d828e01613a51565b92509250509295989b9194979a5092959850565b600060208284031215613df257600080fd5b6000613e0084828501613ab0565b91505092915050565b600060208284031215613e1b57600080fd5b6000613e2984828501613ac5565b91505092915050565b60008060408385031215613e4557600080fd5b6000613e5385828601613ac5565b9250506020613e64858286016139f2565b9150509250929050565b600080600080600080600080600060c08a8c031215613e8c57600080fd5b6000613e9a8c828d01613ac5565b9950506020613eab8c828d016139f2565b98505060408a013567ffffffffffffffff811115613ec857600080fd5b613ed48c828d01613a07565b975097505060608a013567ffffffffffffffff811115613ef357600080fd5b613eff8c828d01613a51565b955095505060808a013567ffffffffffffffff811115613f1e57600080fd5b613f2a8c828d01613a07565b935093505060a0613f3d8c828d016139f2565b9150509295985092959850929598565b60008060008060608587031215613f6357600080fd5b6000613f7187828801613ac5565b9450506020613f82878288016139f2565b935050604085013567ffffffffffffffff811115613f9f57600080fd5b613fab87828801613a51565b925092505092959194509250565b600080600060408486031215613fce57600080fd5b6000613fdc86828701613ac5565b935050602084013567ffffffffffffffff811115613ff957600080fd5b61400586828701613a51565b92509250509250925092565b60006020828403121561402357600080fd5b600061403184828501613ada565b91505092915050565b60006020828403121561404c57600080fd5b600082015167ffffffffffffffff81111561406657600080fd5b61407284828501613b2e565b91505092915050565b60006020828403121561408d57600080fd5b600061409b84828501613b58565b91505092915050565b6000602082840312156140b657600080fd5b60006140c484828501613b6d565b91505092915050565b600080604083850312156140e057600080fd5b60006140ee85828601613b58565b92505060206140ff85828601613a9b565b9150509250929050565b600080600080600060a0868803121561412157600080fd5b600061412f88828901613b82565b955050602061414088828901613b19565b945050604061415188828901613b6d565b935050606061416288828901613b6d565b925050608061417388828901613b82565b9150509295509295909350565b60006020828403121561419257600080fd5b60006141a084828501613b97565b91505092915050565b60006141b58383614329565b60208301905092915050565b60006141cd8383614937565b60208301905092915050565b60006141e58383614955565b60208301905092915050565b6141fa816154b8565b82525050565b600061420b8261517a565b61421581856151d8565b93506142208361514a565b8060005b8381101561425157815161423888826141a9565b9750614243836151b1565b925050600181019050614224565b5085935050505092915050565b600061426982615185565b61427381856151e9565b935061427e8361515a565b8060005b838110156142af57815161429688826141c1565b97506142a1836151be565b925050600181019050614282565b5085935050505092915050565b60006142c782615190565b6142d181856151fa565b93506142dc8361516a565b8060005b8381101561430d5781516142f488826141d9565b97506142ff836151cb565b9250506001810190506142e0565b5085935050505092915050565b614323816154ca565b82525050565b614332816154d6565b82525050565b614341816154d6565b82525050565b60006143528261519b565b61435c818561520b565b935061436c818560208601615572565b80840191505092915050565b6000614383826151a6565b61438d8185615216565b935061439d818560208601615572565b6143a6816156d6565b840191505092915050565b60006143bc826151a6565b6143c68185615227565b93506143d6818560208601615572565b80840191505092915050565b60006143ef601383615216565b91506143fa826156f4565b602082019050919050565b6000614412601483615216565b915061441d8261571d565b602082019050919050565b6000614435602083615216565b915061444082615746565b602082019050919050565b6000614458601483615216565b91506144638261576f565b602082019050919050565b600061447b601683615216565b915061448682615798565b602082019050919050565b600061449e602f83615216565b91506144a9826157c1565b604082019050919050565b60006144c1600d83615216565b91506144cc82615810565b602082019050919050565b60006144e4600a83615216565b91506144ef82615839565b602082019050919050565b6000614507602483615216565b915061451282615862565b604082019050919050565b600061452a600f83615216565b9150614535826158b1565b602082019050919050565b600061454d601683615216565b9150614558826158da565b602082019050919050565b6000614570601783615216565b915061457b82615903565b602082019050919050565b6000614593600a83615216565b915061459e8261592c565b602082019050919050565b60006145b6602183615216565b91506145c182615955565b604082019050919050565b60006145d9602683615216565b91506145e4826159a4565b604082019050919050565b60006145fc601583615216565b9150614607826159f3565b602082019050919050565b600061461f601383615216565b915061462a82615a1c565b602082019050919050565b6000614642601483615216565b915061464d82615a45565b602082019050919050565b6000614665602e83615216565b915061467082615a6e565b604082019050919050565b6000614688601083615216565b915061469382615abd565b602082019050919050565b60006146ab601083615216565b91506146b682615ae6565b602082019050919050565b60006146ce602d83615216565b91506146d982615b0f565b604082019050919050565b60006146f1601583615216565b91506146fc82615b5e565b602082019050919050565b6000614714602083615216565b915061471f82615b87565b602082019050919050565b6000614737601983615216565b915061474282615bb0565b602082019050919050565b600061475a602683615216565b915061476582615bd9565b604082019050919050565b600061477d600b83615216565b915061478882615c28565b602082019050919050565b60006147a0601d83615216565b91506147ab82615c51565b602082019050919050565b60006147c3601583615216565b91506147ce82615c7a565b602082019050919050565b60006147e6601783615227565b91506147f182615ca3565b601782019050919050565b6000614809601683615216565b915061481482615ccc565b602082019050919050565b600061482c602a83615216565b915061483782615cf5565b604082019050919050565b600061484f600b83615216565b915061485a82615d44565b602082019050919050565b6000614872600e83615216565b915061487d82615d6d565b602082019050919050565b6000614895600683615216565b91506148a082615d96565b602082019050919050565b60006148b8602483615216565b91506148c382615dbf565b604082019050919050565b60006148db601183615227565b91506148e682615e0e565b601182019050919050565b60006148fe602f83615216565b915061490982615e37565b604082019050919050565b6000614921602b83615216565b915061492c82615e86565b604082019050919050565b61494081615536565b82525050565b61494f81615536565b82525050565b61495e81615540565b82525050565b60006149708284614347565b915081905092915050565b6000614986826147d9565b915061499282856143b1565b915061499d826148ce565b91506149a982846143b1565b91508190509392505050565b60006020820190506149ca60008301846141f1565b92915050565b60006040820190506149e560008301856141f1565b6149f260208301846141f1565b9392505050565b6000606082019050614a0e60008301866141f1565b614a1b60208301856141f1565b614a286040830184614946565b949350505050565b6000606082019050614a4560008301866141f1565b614a52602083018561431a565b614a5f60408301846141f1565b949350505050565b60006020820190508181036000830152614a81818461425e565b905092915050565b60006040820190508181036000830152614aa381856142bc565b90508181036020830152614ab78184614200565b90509392505050565b6000602082019050614ad5600083018461431a565b92915050565b6000602082019050614af06000830184614338565b92915050565b6000604082019050614b0b6000830185614338565b614b1860208301846141f1565b9392505050565b6000604082019050614b346000830185614338565b8181036020830152614b4681846142bc565b90509392505050565b6000608082019050614b646000830187614338565b614b716020830186614338565b614b7e6040830185614338565b614b8b6060830184614338565b95945050505050565b60006020820190508181036000830152614bae8184614378565b905092915050565b60006020820190508181036000830152614bcf816143e2565b9050919050565b60006020820190508181036000830152614bef81614405565b9050919050565b60006020820190508181036000830152614c0f81614428565b9050919050565b60006020820190508181036000830152614c2f8161444b565b9050919050565b60006020820190508181036000830152614c4f8161446e565b9050919050565b60006020820190508181036000830152614c6f81614491565b9050919050565b60006020820190508181036000830152614c8f816144b4565b9050919050565b60006020820190508181036000830152614caf816144d7565b9050919050565b60006020820190508181036000830152614ccf816144fa565b9050919050565b60006020820190508181036000830152614cef8161451d565b9050919050565b60006020820190508181036000830152614d0f81614540565b9050919050565b60006020820190508181036000830152614d2f81614563565b9050919050565b60006020820190508181036000830152614d4f81614586565b9050919050565b60006020820190508181036000830152614d6f816145a9565b9050919050565b60006020820190508181036000830152614d8f816145cc565b9050919050565b60006020820190508181036000830152614daf816145ef565b9050919050565b60006020820190508181036000830152614dcf81614612565b9050919050565b60006020820190508181036000830152614def81614635565b9050919050565b60006020820190508181036000830152614e0f81614658565b9050919050565b60006020820190508181036000830152614e2f8161467b565b9050919050565b60006020820190508181036000830152614e4f8161469e565b9050919050565b60006020820190508181036000830152614e6f816146c1565b9050919050565b60006020820190508181036000830152614e8f816146e4565b9050919050565b60006020820190508181036000830152614eaf81614707565b9050919050565b60006020820190508181036000830152614ecf8161472a565b9050919050565b60006020820190508181036000830152614eef8161474d565b9050919050565b60006020820190508181036000830152614f0f81614770565b9050919050565b60006020820190508181036000830152614f2f81614793565b9050919050565b60006020820190508181036000830152614f4f816147b6565b9050919050565b60006020820190508181036000830152614f6f816147fc565b9050919050565b60006020820190508181036000830152614f8f8161481f565b9050919050565b60006020820190508181036000830152614faf81614842565b9050919050565b60006020820190508181036000830152614fcf81614865565b9050919050565b60006020820190508181036000830152614fef81614888565b9050919050565b6000602082019050818103600083015261500f816148ab565b9050919050565b6000602082019050818103600083015261502f816148f1565b9050919050565b6000602082019050818103600083015261504f81614914565b9050919050565b600060208201905061506b6000830184614946565b92915050565b60006040820190506150866000830185614946565b615093602083018461431a565b9392505050565b60006040820190506150af6000830185614946565b6150bc6020830184614946565b9392505050565b60006150cd6150de565b90506150d982826155cf565b919050565b6000604051905090565b600067ffffffffffffffff821115615103576151026156a7565b5b61510c826156d6565b9050602081019050919050565b600067ffffffffffffffff821115615134576151336156a7565b5b61513d826156d6565b9050602081019050919050565b6000819050602082019050919050565b6000819050602082019050919050565b6000819050602082019050919050565b600081519050919050565b600081519050919050565b600081519050919050565b600081519050919050565b600081519050919050565b6000602082019050919050565b6000602082019050919050565b6000602082019050919050565b600082825260208201905092915050565b600082825260208201905092915050565b600082825260208201905092915050565b600081905092915050565b600082825260208201905092915050565b600081905092915050565b600061523d82615536565b915061524883615536565b9250827fffffffffffffffffffffffffffffffffffffffffffffffffffffffffffffffff0382111561527d5761527c615649565b5b828201905092915050565b600061529382615536565b915061529e83615536565b9250826152ae576152ad615678565b5b828204905092915050565b6000808291508390505b6001851115615303578086048111156152df576152de615649565b5b60018516156152ee5780820291505b80810290506152fc856156e7565b94506152c3565b94509492505050565b600061531782615536565b915061532283615540565b925061534f7fffffffffffffffffffffffffffffffffffffffffffffffffffffffffffffffff8484615357565b905092915050565b6000826153675760019050615423565b816153755760009050615423565b816001811461538b5760028114615395576153c4565b6001915050615423565b60ff8411156153a7576153a6615649565b5b8360020a9150848211156153be576153bd615649565b5b50615423565b5060208310610133831016604e8410600b84101617156153f95782820a9050838111156153f4576153f3615649565b5b615423565b61540684848460016152b9565b9250905081840481111561541d5761541c615649565b5b81810290505b9392505050565b600061543582615536565b915061544083615536565b9250817fffffffffffffffffffffffffffffffffffffffffffffffffffffffffffffffff048311821515161561547957615478615649565b5b828202905092915050565b600061548f82615540565b915061549a83615540565b9250828210156154ad576154ac615649565b5b828203905092915050565b60006154c382615516565b9050919050565b60008115159050919050565b6000819050919050565b60007fffffffff0000000000000000000000000000000000000000000000000000000082169050919050565b6000819050919050565b600073ffffffffffffffffffffffffffffffffffffffff82169050919050565b6000819050919050565b600060ff82169050919050565b600069ffffffffffffffffffff82169050919050565b82818337600083830152505050565b60005b83811015615590578082015181840152602081019050615575565b8381111561559f576000848401525b50505050565b60006155b082615536565b915060008214156155c4576155c3615649565b5b600182039050919050565b6155d8826156d6565b810181811067ffffffffffffffff821117156155f7576155f66156a7565b5b80604052505050565b600061560b82615536565b91507fffffffffffffffffffffffffffffffffffffffffffffffffffffffffffffffff82141561563e5761563d615649565b5b600182019050919050565b7f4e487b7100000000000000000000000000000000000000000000000000000000600052601160045260246000fd5b7f4e487b7100000000000000000000000000000000000000000000000000000000600052601260045260246000fd5b7f4e487b7100000000000000000000000000000000000000000000000000000000600052604160045260246000fd5b6000601f19601f8301169050919050565b60008160011c9050919050565b7f746f6b656e206e6f7420737570706f7274656400000000000000000000000000600082015250565b7f6f7261636c6520646563696d616c73203e203138000000000000000000000000600082015250565b7f537472696e67733a20686578206c656e67746820696e73756666696369656e74600082015250565b7f6461746174797065206e6f7420656e61626c6564000000000000000000000000600082015250565b7f696e73756666696369656e7420616c6c6f77616e636500000000000000000000600082015250565b7f45524331393637557067726164653a207570677261646520627265616b73206660008201527f7572746865722075706772616465730000000000000000000000000000000000602082015250565b7f6174746573746f72206f6e6c7900000000000000000000000000000000000000600082015250565b7f7072696365203c3d203000000000000000000000000000000000000000000000600082015250565b7f62617463682073697a652073686f756c64206265206265747765656e2031206160008201527f6e64203900000000000000000000000000000000000000000000000000000000602082015250565b7f6e6f742073616d65206c656e6774680000000000000000000000000000000000600082015250565b7f7472616e73616374696f6e20636f7374203e2024313000000000000000000000600082015250565b7f676f7665726e616e63652061646472657373207a65726f000000000000000000600082015250565b7f61646d696e206f6e6c7900000000000000000000000000000000000000000000600082015250565b7f746f6b656e20616c726561647920617574686f72697a65642f64697361626c6560008201527f6400000000000000000000000000000000000000000000000000000000000000602082015250565b7f416464726573733a20696e73756666696369656e742062616c616e636520666f60008201527f722063616c6c0000000000000000000000000000000000000000000000000000602082015250565b7f74726561737572792061646472657373207a65726f0000000000000000000000600082015250565b7f7061757365722061646472657373207a65726f00000000000000000000000000600082015250565b7f4f7261636c6520446563696d616c73203e203138000000000000000000000000600082015250565b7f496e697469616c697a61626c653a20636f6e747261637420697320616c72656160008201527f647920696e697469616c697a6564000000000000000000000000000000000000602082015250565b7f616c726561647920756e70617573656400000000000000000000000000000000600082015250565b7f6c656e677468206e6f7420657175616c00000000000000000000000000000000600082015250565b7f455243313936373a206e657720696d706c656d656e746174696f6e206973206e60008201527f6f74206120636f6e747261637400000000000000000000000000000000000000602082015250565b7f4552433230206164647265737320696e76616c69640000000000000000000000600082015250565b7f646174615479706520616c7265616479206163746976652f696e616374697665600082015250565b7f7472616e73616374696f6e20636f7374206e6567617469766500000000000000600082015250565b7f416464726573733a2064656c65676174652063616c6c20746f206e6f6e2d636f60008201527f6e74726163740000000000000000000000000000000000000000000000000000602082015250565b7f63616e6e6f742062652030000000000000000000000000000000000000000000600082015250565b7f416464726573733a2063616c6c20746f206e6f6e2d636f6e7472616374000000600082015250565b7f6174746573746f722061646472657373207a65726f0000000000000000000000600082015250565b7f416363657373436f6e74726f6c3a206163636f756e7420000000000000000000600082015250565b7f4f7261636c65206164647265737320696e76616c696400000000000000000000600082015250565b7f5361666545524332303a204552433230206f7065726174696f6e20646964206e60008201527f6f74207375636365656400000000000000000000000000000000000000000000602082015250565b7f706175736572206f6e6c79000000000000000000000000000000000000000000600082015250565b7f616c726561647920706175736564000000000000000000000000000000000000600082015250565b7f7061757365640000000000000000000000000000000000000000000000000000600082015250565b7f747265617375727920616c72656164792073657420746f20746869732061646460008201527f7265737300000000000000000000000000000000000000000000000000000000602082015250565b7f206973206d697373696e6720726f6c6520000000000000000000000000000000600082015250565b7f416363657373436f6e74726f6c3a2063616e206f6e6c792072656e6f756e636560008201527f20726f6c657320666f722073656c660000000000000000000000000000000000602082015250565b7f7472616e73616374696f6e436f737420616c726561647920736574207769746860008201527f20746869732076616c7565000000000000000000000000000000000000000000602082015250565b615ede816154b8565b8114615ee957600080fd5b50565b615ef5816154ca565b8114615f0057600080fd5b50565b615f0c816154d6565b8114615f1757600080fd5b50565b615f23816154e0565b8114615f2e57600080fd5b50565b615f3a8161550c565b8114615f4557600080fd5b50565b615f5181615536565b8114615f5c57600080fd5b50565b615f6881615540565b8114615f7357600080fd5b50565b615f7f8161554d565b8114615f8a57600080fd5b5056fe416464726573733a206c6f772d6c6576656c2064656c65676174652063616c6c206661696c6564a2646970667358221220d53e13270262bd9c3291281cdcd7f144ca332eb9f4da995496a98cc5bcefa71f64736f6c63430008020033",
  "linkReferences": {},
  "deployedLinkReferences": {}
}