{
  "_format": "hh-sol-artifact-1",
  "contractName": "ChainLinkPriceOracle",
  "sourceName": "contracts/test/PriceOracle.sol",
  "abi": [
    {
      "inputs": [
        {
          "internalType": "uint8",
          "name": "_decimals",
          "type": "uint8"
        },
        {
          "internalType": "string",
          "name": "_description",
          "type": "string"
        },
        {
          "internalType": "uint256",
          "name": "_version",
          "type": "uint256"
        },
        {
          "internalType": "int256",
          "name": "_priceInUSD",
          "type": "int256"
        }
      ],
      "stateMutability": "nonpayable",
      "type": "constructor"
    },
    {
      "inputs": [],
      "name": "decimals",
      "outputs": [
        {
          "internalType": "uint8",
          "name": "",
          "type": "uint8"
        }
      ],
      "stateMutability": "view",
      "type": "function"
    },
    {
      "inputs": [],
      "name": "description",
      "outputs": [
        {
          "internalType": "string",
          "name": "",
          "type": "string"
        }
      ],
      "stateMutability": "view",
      "type": "function"
    },
    {
      "inputs": [],
      "name": "latestRoundData",
      "outputs": [
        {
          "internalType": "uint80",
          "name": "",
          "type": "uint80"
        },
        {
          "internalType": "int256",
          "name": "",
          "type": "int256"
        },
        {
          "internalType": "uint256",
          "name": "",
          "type": "uint256"
        },
        {
          "internalType": "uint256",
          "name": "",
          "type": "uint256"
        },
        {
          "internalType": "uint80",
          "name": "",
          "type": "uint80"
        }
      ],
      "stateMutability": "nonpayable",
      "type": "function"
    },
    {
      "inputs": [],
      "name": "priceInUSD",
      "outputs": [
        {
          "internalType": "int256",
          "name": "",
          "type": "int256"
        }
      ],
      "stateMutability": "view",
      "type": "function"
    },
    {
      "inputs": [],
      "name": "roundId",
      "outputs": [
        {
          "internalType": "uint80",
          "name": "",
          "type": "uint80"
        }
      ],
      "stateMutability": "view",
      "type": "function"
    },
    {
      "inputs": [],
      "name": "version",
      "outputs": [
        {
          "internalType": "uint256",
          "name": "",
          "type": "uint256"
        }
      ],
      "stateMutability": "view",
      "type": "function"
    }
  ],
  "bytecode": "0x60806040523480156200001157600080fd5b5060405162000c6b38038062000c6b833981810160405281019062000037919062000242565b836000806101000a81548160ff021916908360ff160217905550826001908051906020019062000069929190620000db565b50816002819055506000600360006101000a81548169ffffffffffffffffffff021916908369ffffffffffffffffffff16021790555060008054906101000a900460ff1660ff16600a620000be919062000381565b81620000cb9190620004be565b60048190555050505050620007a1565b828054620000e9906200063c565b90600052602060002090601f0160209004810192826200010d576000855562000159565b82601f106200012857805160ff191683800117855562000159565b8280016001018555821562000159579182015b82811115620001585782518255916020019190600101906200013b565b5b5090506200016891906200016c565b5090565b5b80821115620001875760008160009055506001016200016d565b5090565b6000620001a26200019c84620002f0565b620002c7565b905082815260208101848484011115620001bb57600080fd5b620001c884828562000606565b509392505050565b600081519050620001e18162000753565b92915050565b600082601f830112620001f957600080fd5b81516200020b8482602086016200018b565b91505092915050565b60008151905062000225816200076d565b92915050565b6000815190506200023c8162000787565b92915050565b600080600080608085870312156200025957600080fd5b600062000269878288016200022b565b945050602085015167ffffffffffffffff8111156200028757600080fd5b6200029587828801620001e7565b9350506040620002a88782880162000214565b9250506060620002bb87828801620001d0565b91505092959194509250565b6000620002d3620002e6565b9050620002e1828262000672565b919050565b6000604051905090565b600067ffffffffffffffff8211156200030e576200030d62000706565b5b620003198262000735565b9050602081019050919050565b6000808291508390505b6001851115620003785780860481111562000350576200034f620006a8565b5b6001851615620003605780820291505b8081029050620003708562000746565b945062000330565b94509492505050565b60006200038e82620005ef565b91506200039b83620005ef565b9250620003ca7fffffffffffffffffffffffffffffffffffffffffffffffffffffffffffffffff8484620003d2565b905092915050565b600082620003e45760019050620004b7565b81620003f45760009050620004b7565b81600181146200040d576002811462000418576200044e565b6001915050620004b7565b60ff8411156200042d576200042c620006a8565b5b8360020a915084821115620004475762000446620006a8565b5b50620004b7565b5060208310610133831016604e8410600b8410161715620004885782820a905083811115620004825762000481620006a8565b5b620004b7565b62000497848484600162000326565b92509050818404811115620004b157620004b0620006a8565b5b81810290505b9392505050565b6000620004cb82620005e5565b9150620004d883620005e5565b9250827f7fffffffffffffffffffffffffffffffffffffffffffffffffffffffffffffff04821160008413600084131616156200051a5762000519620006a8565b5b817f800000000000000000000000000000000000000000000000000000000000000005831260008412600084131616156200055a5762000559620006a8565b5b827f800000000000000000000000000000000000000000000000000000000000000005821260008413600084121616156200059a5762000599620006a8565b5b827f7fffffffffffffffffffffffffffffffffffffffffffffffffffffffffffffff0582126000841260008412161615620005da57620005d9620006a8565b5b828202905092915050565b6000819050919050565b6000819050919050565b600060ff82169050919050565b60005b838110156200062657808201518184015260208101905062000609565b8381111562000636576000848401525b50505050565b600060028204905060018216806200065557607f821691505b602082108114156200066c576200066b620006d7565b5b50919050565b6200067d8262000735565b810181811067ffffffffffffffff821117156200069f576200069e62000706565b5b80604052505050565b7f4e487b7100000000000000000000000000000000000000000000000000000000600052601160045260246000fd5b7f4e487b7100000000000000000000000000000000000000000000000000000000600052602260045260246000fd5b7f4e487b7100000000000000000000000000000000000000000000000000000000600052604160045260246000fd5b6000601f19601f8301169050919050565b60008160011c9050919050565b6200075e81620005e5565b81146200076a57600080fd5b50565b6200077881620005ef565b81146200078457600080fd5b50565b6200079281620005f9565b81146200079e57600080fd5b50565b6104ba80620007b16000396000f3fe608060405234801561001057600080fd5b50600436106100625760003560e01c8063313ce5671461006757806354fd4d50146100855780637284e416146100a35780638cd221c9146100c1578063d41edb7b146100df578063feaf968c146100fd575b600080fd5b61006f61011f565b60405161007c9190610371565b60405180910390f35b61008d610130565b60405161009a91906102e8565b60405180910390f35b6100ab610136565b6040516100b891906102c6565b60405180910390f35b6100c96101c4565b6040516100d69190610303565b60405180910390f35b6100e76101e0565b6040516100f491906102ab565b60405180910390f35b6101056101e6565b60405161011695949392919061031e565b60405180910390f35b60008054906101000a900460ff1681565b60025481565b6001805461014390610412565b80601f016020809104026020016040519081016040528092919081815260200182805461016f90610412565b80156101bc5780601f10610191576101008083540402835291602001916101bc565b820191906000526020600020905b81548152906001019060200180831161019f57829003601f168201915b505050505081565b600360009054906101000a900469ffffffffffffffffffff1681565b60045481565b6000806000806000600360009054906101000a900469ffffffffffffffffffff166004544242600360009054906101000a900469ffffffffffffffffffff16945094509450945094509091929394565b61023f816103a8565b82525050565b60006102508261038c565b61025a8185610397565b935061026a8185602086016103df565b61027381610473565b840191505092915050565b610287816103b2565b82525050565b610296816103c9565b82525050565b6102a5816103bc565b82525050565b60006020820190506102c06000830184610236565b92915050565b600060208201905081810360008301526102e08184610245565b905092915050565b60006020820190506102fd600083018461027e565b92915050565b6000602082019050610318600083018461028d565b92915050565b600060a082019050610333600083018861028d565b6103406020830187610236565b61034d604083018661027e565b61035a606083018561027e565b610367608083018461028d565b9695505050505050565b6000602082019050610386600083018461029c565b92915050565b600081519050919050565b600082825260208201905092915050565b6000819050919050565b6000819050919050565b600060ff82169050919050565b600069ffffffffffffffffffff82169050919050565b60005b838110156103fd5780820151818401526020810190506103e2565b8381111561040c576000848401525b50505050565b6000600282049050600182168061042a57607f821691505b6020821081141561043e5761043d610444565b5b50919050565b7f4e487b7100000000000000000000000000000000000000000000000000000000600052602260045260246000fd5b6000601f19601f830116905091905056fea264697066735822122040bfb1de682614d0c9c8eb8f466a7f1ce381b5248d17cf02db5ad222e0c7c38164736f6c63430008020033",
  "linkReferences": {},
  "deployedLinkReferences": {}
}