{
  "_format": "hh-sol-artifact-1",
  "contractName": "MSB",
  "sourceName": "contracts/test/MSB.sol",
  "abi": [
    {
      "inputs": [
        {
          "internalType": "address",
          "name": "_proxy",
          "type": "address"
        }
      ],
      "stateMutability": "nonpayable",
      "type": "constructor"
    },
    {
      "anonymous": false,
      "inputs": [
        {
          "indexed": false,
          "internalType": "bytes32",
          "name": "_kID",
          "type": "bytes32"
        },
        {
          "indexed": false,
          "internalType": "uint8[]",
          "name": "_matches",
          "type": "uint8[]"
        },
        {
          "indexed": false,
          "internalType": "uint256",
          "name": "_paymentAmount",
          "type": "uint256"
        },
        {
          "indexed": false,
          "internalType": "uint256[]",
          "name": "_blockNumbers",
          "type": "uint256[]"
        }
      ],
      "name": "MatchInfo",
      "type": "event"
    },
    {
      "inputs": [
        {
          "internalType": "bytes32",
          "name": "_hashWalletSig",
          "type": "bytes32"
        },
        {
          "internalType": "bytes32[]",
          "name": "_nonceSigsKD",
          "type": "bytes32[]"
        },
        {
          "internalType": "bytes32[]",
          "name": "_rawValues",
          "type": "bytes32[]"
        },
        {
          "internalType": "uint256[]",
          "name": "_dataTypes",
          "type": "uint256[]"
        },
        {
          "internalType": "address",
          "name": "_erc20",
          "type": "address"
        }
      ],
      "name": "callKy0x",
      "outputs": [],
      "stateMutability": "nonpayable",
      "type": "function"
    },
    {
      "inputs": [
        {
          "internalType": "bytes32[]",
          "name": "_nonceSigsKD",
          "type": "bytes32[]"
        },
        {
          "internalType": "bytes32",
          "name": "_hashWalletSig",
          "type": "bytes32"
        },
        {
          "internalType": "address",
          "name": "_erc20",
          "type": "address"
        }
      ],
      "name": "deposit",
      "outputs": [],
      "stateMutability": "nonpayable",
      "type": "function"
    },
    {
      "inputs": [
        {
          "internalType": "bytes32[]",
          "name": "_nonceSigsKD",
          "type": "bytes32[]"
        },
        {
          "internalType": "bytes32",
          "name": "_hashWalletSig",
          "type": "bytes32"
        },
        {
          "internalType": "address",
          "name": "_erc20",
          "type": "address"
        }
      ],
      "name": "depositWithEvents",
      "outputs": [],
      "stateMutability": "nonpayable",
      "type": "function"
    },
    {
      "inputs": [],
      "name": "main",
      "outputs": [
        {
          "internalType": "contract IKy0xMain",
          "name": "",
          "type": "address"
        }
      ],
      "stateMutability": "view",
      "type": "function"
    }
  ],
  "bytecode": "0x60806040523480156200001157600080fd5b50604051620019bf380380620019bf833981810160405281019062000037919062000095565b806000806101000a81548173ffffffffffffffffffffffffffffffffffffffff021916908373ffffffffffffffffffffffffffffffffffffffff160217905550506200010f565b6000815190506200008f81620000f5565b92915050565b600060208284031215620000a857600080fd5b6000620000b8848285016200007e565b91505092915050565b6000620000ce82620000d5565b9050919050565b600073ffffffffffffffffffffffffffffffffffffffff82169050919050565b6200010081620000c1565b81146200010c57600080fd5b50565b6118a0806200011f6000396000f3fe608060405234801561001057600080fd5b506004361061004c5760003560e01c806341157c90146100515780638b3f24341461006d578063c5752e4914610089578063dffeadd0146100a5575b600080fd5b61006b60048036038101906100669190610d41565b6100c3565b005b61008760048036038101906100829190610e17565b6100d7565b005b6100a3600480360381019061009e9190610d41565b610404565b005b6100ad610558565b6040516100ba919061144d565b60405180910390f35b6100cf8484848461057c565b505050505050565b60008060009054906101000a900473ffffffffffffffffffffffffffffffffffffffff1673ffffffffffffffffffffffffffffffffffffffff16636576c08e836040518263ffffffff1660e01b81526004016101339190611244565b60206040518083038186803b15801561014b57600080fd5b505afa15801561015f573d6000803e3d6000fd5b505050506040513d601f19601f820116820180604052508101906101839190610f37565b90508173ffffffffffffffffffffffffffffffffffffffff1663095ea7b360008054906101000a900473ffffffffffffffffffffffffffffffffffffffff16836040518363ffffffff1660e01b81526004016101e092919061125f565b602060405180830381600087803b1580156101fa57600080fd5b505af115801561020e573d6000803e3d6000fd5b505050506040513d601f19601f820116820180604052508101906102329190610dee565b50606060008060009054906101000a900473ffffffffffffffffffffffffffffffffffffffff1673ffffffffffffffffffffffffffffffffffffffff1663499b11638c338d8d8b8b8f8f8d6040518a63ffffffff1660e01b81526004016102a199989796959493929190611288565b600060405180830381600087803b1580156102bb57600080fd5b505af11580156102cf573d6000803e3d6000fd5b505050506040513d6000823e3d601f19601f820116820180604052508101906102f89190610ee3565b809350819250505060008060009054906101000a900473ffffffffffffffffffffffffffffffffffffffff1673ffffffffffffffffffffffffffffffffffffffff1663e668150b8d338a8a6040518563ffffffff1660e01b8152600401610362949392919061137c565b60006040518083038186803b15801561037a57600080fd5b505afa15801561038e573d6000803e3d6000fd5b505050506040513d6000823e3d601f19601f820116820180604052508101906103b79190610dad565b90507f5e254862e2c624e870614fa69bbf41a9187b7800b01e9c3f708edd70abf27532828486846040516103ee94939291906113fa565b60405180910390a1505050505050505050505050565b606060006104148686868661057c565b809350819250505085859050825114610462576040517f08c379a000000000000000000000000000000000000000000000000000000000815260040161045990611468565b60405180910390fd5b6000801b8114156104a8576040517f08c379a000000000000000000000000000000000000000000000000000000000815260040161049f90611488565b60405180910390fd5b60005b8686905081101561054f5760018382815181106104f1577f4e487b7100000000000000000000000000000000000000000000000000000000600052603260045260246000fd5b602002602001015160ff161461053c576040517f08c379a0000000000000000000000000000000000000000000000000000000008152600401610533906114a8565b60405180910390fd5b8080610547906116c4565b9150506104ab565b50505050505050565b60008054906101000a900473ffffffffffffffffffffffffffffffffffffffff1681565b6000606060008060009054906101000a900473ffffffffffffffffffffffffffffffffffffffff1673ffffffffffffffffffffffffffffffffffffffff16636576c08e856040518263ffffffff1660e01b81526004016105dc9190611244565b60206040518083038186803b1580156105f457600080fd5b505afa158015610608573d6000803e3d6000fd5b505050506040513d601f19601f8201168201806040525081019061062c9190610f37565b90508373ffffffffffffffffffffffffffffffffffffffff1663095ea7b360008054906101000a900473ffffffffffffffffffffffffffffffffffffffff16836040518363ffffffff1660e01b815260040161068992919061125f565b602060405180830381600087803b1580156106a357600080fd5b505af11580156106b7573d6000803e3d6000fd5b505050506040513d601f19601f820116820180604052508101906106db9190610dee565b5060606000808989905067ffffffffffffffff811115610724577f4e487b7100000000000000000000000000000000000000000000000000000000600052604160045260246000fd5b6040519080825280602002602001820160405280156107525781602001602082028036833780820191505090505b50905060008a8a905067ffffffffffffffff81111561079a577f4e487b7100000000000000000000000000000000000000000000000000000000600052604160045260246000fd5b6040519080825280602002602001820160405280156107c85781602001602082028036833780820191505090505b5090507f8e6ec7cc8637dc1fd49b2500b930e6a646847644be08844403a4be022386f2d181600081518110610826577f4e487b7100000000000000000000000000000000000000000000000000000000600052603260045260246000fd5b60200260200101818152505060008260008151811061086e577f4e487b7100000000000000000000000000000000000000000000000000000000600052603260045260246000fd5b60200260200101818152505060028b8b90501415610936576001826001815181106108c2577f4e487b7100000000000000000000000000000000000000000000000000000000600052603260045260246000fd5b6020026020010181815250507f9b5d0afc4ce6aab66db8f9e830a22816d964b8335946aa854fe79bb71202ce0f81600181518110610929577f4e487b7100000000000000000000000000000000000000000000000000000000600052603260045260246000fd5b6020026020010181815250505b60008054906101000a900473ffffffffffffffffffffffffffffffffffffffff1673ffffffffffffffffffffffffffffffffffffffff1663499b11638a338e8e87878f6040518863ffffffff1660e01b815260040161099b9796959493929190611304565b600060405180830381600087803b1580156109b557600080fd5b505af11580156109c9573d6000803e3d6000fd5b505050506040513d6000823e3d601f19601f820116820180604052508101906109f29190610ee3565b809550819450505060008060009054906101000a900473ffffffffffffffffffffffffffffffffffffffff1673ffffffffffffffffffffffffffffffffffffffff1663e668150b8b33866040518463ffffffff1660e01b8152600401610a5a939291906113bc565b60006040518083038186803b158015610a7257600080fd5b505afa158015610a86573d6000803e3d6000fd5b505050506040513d6000823e3d601f19601f82011682018060405250810190610aaf9190610dad565b90507f5e254862e2c624e870614fa69bbf41a9187b7800b01e9c3f708edd70abf2753284868884604051610ae694939291906113fa565b60405180910390a183859750975050505050505094509492505050565b6000610b16610b11846114ed565b6114c8565b90508083825260208201905082856020860282011115610b3557600080fd5b60005b85811015610b655781610b4b8882610d17565b845260208401935060208301925050600181019050610b38565b5050509392505050565b6000610b82610b7d84611519565b6114c8565b90508083825260208201905082856020860282011115610ba157600080fd5b60005b85811015610bd15781610bb78882610d2c565b845260208401935060208301925050600181019050610ba4565b5050509392505050565b600081359050610bea816117f7565b92915050565b60008083601f840112610c0257600080fd5b8235905067ffffffffffffffff811115610c1b57600080fd5b602083019150836020820283011115610c3357600080fd5b9250929050565b60008083601f840112610c4c57600080fd5b8235905067ffffffffffffffff811115610c6557600080fd5b602083019150836020820283011115610c7d57600080fd5b9250929050565b600082601f830112610c9557600080fd5b8151610ca5848260208601610b03565b91505092915050565b600082601f830112610cbf57600080fd5b8151610ccf848260208601610b6f565b91505092915050565b600081519050610ce78161180e565b92915050565b600081359050610cfc81611825565b92915050565b600081519050610d1181611825565b92915050565b600081519050610d268161183c565b92915050565b600081519050610d3b81611853565b92915050565b60008060008060608587031215610d5757600080fd5b600085013567ffffffffffffffff811115610d7157600080fd5b610d7d87828801610bf0565b94509450506020610d9087828801610ced565b9250506040610da187828801610bdb565b91505092959194509250565b600060208284031215610dbf57600080fd5b600082015167ffffffffffffffff811115610dd957600080fd5b610de584828501610c84565b91505092915050565b600060208284031215610e0057600080fd5b6000610e0e84828501610cd8565b91505092915050565b60008060008060008060008060a0898b031215610e3357600080fd5b6000610e418b828c01610ced565b985050602089013567ffffffffffffffff811115610e5e57600080fd5b610e6a8b828c01610bf0565b9750975050604089013567ffffffffffffffff811115610e8957600080fd5b610e958b828c01610bf0565b9550955050606089013567ffffffffffffffff811115610eb457600080fd5b610ec08b828c01610c3a565b93509350506080610ed38b828c01610bdb565b9150509295985092959890939650565b60008060408385031215610ef657600080fd5b6000610f0485828601610d02565b925050602083015167ffffffffffffffff811115610f2157600080fd5b610f2d85828601610cae565b9150509250929050565b600060208284031215610f4957600080fd5b6000610f5784828501610d17565b91505092915050565b6000610f6c8383611181565b60208301905092915050565b6000610f848383611217565b60208301905092915050565b6000610f9c8383611235565b60208301905092915050565b610fb181611601565b82525050565b6000610fc383856115bd565b93507f07ffffffffffffffffffffffffffffffffffffffffffffffffffffffffffffff831115610ff257600080fd5b602083029250611003838584611684565b82840190509392505050565b600061101a82611575565b61102481856115bd565b935061102f83611545565b8060005b838110156110605781516110478882610f60565b975061105283611596565b925050600181019050611033565b5085935050505092915050565b600061107983856115ce565b93507f07ffffffffffffffffffffffffffffffffffffffffffffffffffffffffffffff8311156110a857600080fd5b6020830292506110b9838584611684565b82840190509392505050565b60006110d082611580565b6110da81856115ce565b93506110e583611555565b8060005b838110156111165781516110fd8882610f78565b9750611108836115a3565b9250506001810190506110e9565b5085935050505092915050565b600061112e8261158b565b61113881856115df565b935061114383611565565b8060005b8381101561117457815161115b8882610f90565b9750611166836115b0565b925050600181019050611147565b5085935050505092915050565b61118a8161161f565b82525050565b6111998161161f565b82525050565b6111a881611660565b82525050565b60006111bb6014836115f0565b91506111c68261177c565b602082019050919050565b60006111de6010836115f0565b91506111e9826117a5565b602082019050919050565b6000611201600c836115f0565b915061120c826117ce565b602082019050919050565b61122081611649565b82525050565b61122f81611649565b82525050565b61123e81611653565b82525050565b60006020820190506112596000830184610fa8565b92915050565b60006040820190506112746000830185610fa8565b6112816020830184611226565b9392505050565b600060c08201905061129d600083018c611190565b6112aa602083018b610fa8565b81810360408301526112bd81898b610fb7565b905081810360608301526112d281878961106d565b905081810360808301526112e7818587610fb7565b90506112f660a0830184610fa8565b9a9950505050505050505050565b600060c082019050611319600083018a611190565b6113266020830189610fa8565b8181036040830152611339818789610fb7565b9050818103606083015261134d81866110c5565b90508181036080830152611361818561100f565b905061137060a0830184610fa8565b98975050505050505050565b60006060820190506113916000830187611190565b61139e6020830186610fa8565b81810360408301526113b181848661106d565b905095945050505050565b60006060820190506113d16000830186611190565b6113de6020830185610fa8565b81810360408301526113f081846110c5565b9050949350505050565b600060808201905061140f6000830187611190565b81810360208301526114218186611123565b90506114306040830185611226565b818103606083015261144281846110c5565b905095945050505050565b6000602082019050611462600083018461119f565b92915050565b60006020820190508181036000830152611481816111ae565b9050919050565b600060208201905081810360008301526114a1816111d1565b9050919050565b600060208201905081810360008301526114c1816111f4565b9050919050565b60006114d26114e3565b90506114de8282611693565b919050565b6000604051905090565b600067ffffffffffffffff8211156115085761150761173c565b5b602082029050602081019050919050565b600067ffffffffffffffff8211156115345761153361173c565b5b602082029050602081019050919050565b6000819050602082019050919050565b6000819050602082019050919050565b6000819050602082019050919050565b600081519050919050565b600081519050919050565b600081519050919050565b6000602082019050919050565b6000602082019050919050565b6000602082019050919050565b600082825260208201905092915050565b600082825260208201905092915050565b600082825260208201905092915050565b600082825260208201905092915050565b600061160c82611629565b9050919050565b60008115159050919050565b6000819050919050565b600073ffffffffffffffffffffffffffffffffffffffff82169050919050565b6000819050919050565b600060ff82169050919050565b600061166b82611672565b9050919050565b600061167d82611629565b9050919050565b82818337600083830152505050565b61169c8261176b565b810181811067ffffffffffffffff821117156116bb576116ba61173c565b5b80604052505050565b60006116cf82611649565b91507fffffffffffffffffffffffffffffffffffffffffffffffffffffffffffffffff8214156117025761170161170d565b5b600182019050919050565b7f4e487b7100000000000000000000000000000000000000000000000000000000600052601160045260246000fd5b7f4e487b7100000000000000000000000000000000000000000000000000000000600052604160045260246000fd5b6000601f19601f8301169050919050565b7f6c656e677468206d6174636820696e76616c6964000000000000000000000000600082015250565b7f6b7930784944206e6f7420666f756e6400000000000000000000000000000000600082015250565b7f4b5943206e6f206d617463680000000000000000000000000000000000000000600082015250565b61180081611601565b811461180b57600080fd5b50565b61181781611613565b811461182257600080fd5b50565b61182e8161161f565b811461183957600080fd5b50565b61184581611649565b811461185057600080fd5b50565b61185c81611653565b811461186757600080fd5b5056fea2646970667358221220cad0921d90c5b624106803372d859d54f50ac6395ecb6d0293701031e2d43ab164736f6c63430008020033",
  "linkReferences": {},
  "deployedLinkReferences": {}
}