{
  "_format": "hh-sol-artifact-1",
  "contractName": "Ky0xStore",
  "sourceName": "contracts/Ky0xStore.sol",
  "abi": [
    {
      "inputs": [
        {
          "internalType": "uint256",
          "name": "",
          "type": "uint256"
        }
      ],
      "name": "dataTypesMap",
      "outputs": [
        {
          "internalType": "bool",
          "name": "",
          "type": "bool"
        }
      ],
      "stateMutability": "view",
      "type": "function"
    },
    {
      "inputs": [],
      "name": "paused",
      "outputs": [
        {
          "internalType": "bool",
          "name": "",
          "type": "bool"
        }
      ],
      "stateMutability": "view",
      "type": "function"
    },
    {
      "inputs": [
        {
          "internalType": "address",
          "name": "",
          "type": "address"
        }
      ],
      "name": "tokenAllowedPaymentMap",
      "outputs": [
        {
          "internalType": "bool",
          "name": "",
          "type": "bool"
        }
      ],
      "stateMutability": "view",
      "type": "function"
    },
    {
      "inputs": [],
      "name": "transactionCostUSD",
      "outputs": [
        {
          "internalType": "uint256",
          "name": "",
          "type": "uint256"
        }
      ],
      "stateMutability": "view",
      "type": "function"
    },
    {
      "inputs": [],
      "name": "treasury",
      "outputs": [
        {
          "internalType": "address",
          "name": "",
          "type": "address"
        }
      ],
      "stateMutability": "view",
      "type": "function"
    }
  ],
  "bytecode": "0x608060405234801561001057600080fd5b5061033b806100206000396000f3fe608060405234801561001057600080fd5b50600436106100575760003560e01c80630cff104a1461005c5780634a5852881461007a5780635c975abb146100aa57806361d027b3146100c8578063703426c1146100e6575b600080fd5b610064610116565b6040516100719190610274565b60405180910390f35b610094600480360381019061008f91906101e8565b61011c565b6040516100a19190610259565b60405180910390f35b6100b261013c565b6040516100bf9190610259565b60405180910390f35b6100d061014f565b6040516100dd919061023e565b60405180910390f35b61010060048036038101906100fb91906101bf565b610175565b60405161010d9190610259565b60405180910390f35b60065481565b60016020528060005260406000206000915054906101000a900460ff1681565b600760009054906101000a900460ff1681565b600560009054906101000a900473ffffffffffffffffffffffffffffffffffffffff1681565b60036020528060005260406000206000915054906101000a900460ff1681565b6000813590506101a4816102d7565b92915050565b6000813590506101b9816102ee565b92915050565b6000602082840312156101d157600080fd5b60006101df84828501610195565b91505092915050565b6000602082840312156101fa57600080fd5b6000610208848285016101aa565b91505092915050565b61021a8161028f565b82525050565b610229816102a1565b82525050565b610238816102cd565b82525050565b60006020820190506102536000830184610211565b92915050565b600060208201905061026e6000830184610220565b92915050565b6000602082019050610289600083018461022f565b92915050565b600061029a826102ad565b9050919050565b60008115159050919050565b600073ffffffffffffffffffffffffffffffffffffffff82169050919050565b6000819050919050565b6102e08161028f565b81146102eb57600080fd5b50565b6102f7816102cd565b811461030257600080fd5b5056fea26469706673582212203ee520c2199e2bd24ba28029e3d5c3b20f18e982c66fd53d4a1d96345a76c67d64736f6c63430008020033",
  "linkReferences": {},
  "deployedLinkReferences": {}
}