{
  "_format": "hh-sol-artifact-1",
  "contractName": "Ky0xMainV2",
  "sourceName": "contracts/test/Ky0xMainV2.sol",
  "abi": [
    {
      "anonymous": false,
      "inputs": [
        {
          "indexed": false,
          "internalType": "address",
          "name": "previousAdmin",
          "type": "address"
        },
        {
          "indexed": false,
          "internalType": "address",
          "name": "newAdmin",
          "type": "address"
        }
      ],
      "name": "AdminChanged",
      "type": "event"
    },
    {
      "anonymous": false,
      "inputs": [
        {
          "indexed": false,
          "internalType": "address",
          "name": "_erc20",
          "type": "address"
        },
        {
          "indexed": false,
          "internalType": "bool",
          "name": "_isAllowed",
          "type": "bool"
        },
        {
          "indexed": false,
          "internalType": "address",
          "name": "_oracleFeed",
          "type": "address"
        }
      ],
      "name": "AllowTokenPaymentEvent",
      "type": "event"
    },
    {
      "anonymous": false,
      "inputs": [
        {
          "indexed": true,
          "internalType": "address",
          "name": "beacon",
          "type": "address"
        }
      ],
      "name": "BeaconUpgraded",
      "type": "event"
    },
    {
      "anonymous": false,
      "inputs": [
        {
          "indexed": false,
          "internalType": "uint256",
          "name": "_dataType",
          "type": "uint256"
        },
        {
          "indexed": false,
          "internalType": "bool",
          "name": "_isActive",
          "type": "bool"
        }
      ],
      "name": "DataTypeEvent",
      "type": "event"
    },
    {
      "anonymous": false,
      "inputs": [],
      "name": "PausedEvent",
      "type": "event"
    },
    {
      "anonymous": false,
      "inputs": [
        {
          "indexed": true,
          "internalType": "bytes32",
          "name": "role",
          "type": "bytes32"
        },
        {
          "indexed": true,
          "internalType": "bytes32",
          "name": "previousAdminRole",
          "type": "bytes32"
        },
        {
          "indexed": true,
          "internalType": "bytes32",
          "name": "newAdminRole",
          "type": "bytes32"
        }
      ],
      "name": "RoleAdminChanged",
      "type": "event"
    },
    {
      "anonymous": false,
      "inputs": [
        {
          "indexed": true,
          "internalType": "bytes32",
          "name": "role",
          "type": "bytes32"
        },
        {
          "indexed": true,
          "internalType": "address",
          "name": "account",
          "type": "address"
        },
        {
          "indexed": true,
          "internalType": "address",
          "name": "sender",
          "type": "address"
        }
      ],
      "name": "RoleGranted",
      "type": "event"
    },
    {
      "anonymous": false,
      "inputs": [
        {
          "indexed": true,
          "internalType": "bytes32",
          "name": "role",
          "type": "bytes32"
        },
        {
          "indexed": true,
          "internalType": "address",
          "name": "account",
          "type": "address"
        },
        {
          "indexed": true,
          "internalType": "address",
          "name": "sender",
          "type": "address"
        }
      ],
      "name": "RoleRevoked",
      "type": "event"
    },
    {
      "anonymous": false,
      "inputs": [
        {
          "indexed": false,
          "internalType": "uint256",
          "name": "_oldCost",
          "type": "uint256"
        },
        {
          "indexed": false,
          "internalType": "uint256",
          "name": "_newCost",
          "type": "uint256"
        }
      ],
      "name": "TransactionCostUpdateEvent",
      "type": "event"
    },
    {
      "anonymous": false,
      "inputs": [
        {
          "indexed": false,
          "internalType": "address",
          "name": "_oldTreasury",
          "type": "address"
        },
        {
          "indexed": false,
          "internalType": "address",
          "name": "_newTreasury",
          "type": "address"
        }
      ],
      "name": "TreasuryUpdateEvent",
      "type": "event"
    },
    {
      "anonymous": false,
      "inputs": [],
      "name": "UnpausedEvent",
      "type": "event"
    },
    {
      "anonymous": false,
      "inputs": [
        {
          "indexed": true,
          "internalType": "address",
          "name": "implementation",
          "type": "address"
        }
      ],
      "name": "Upgraded",
      "type": "event"
    },
    {
      "inputs": [],
      "name": "DEFAULT_ADMIN_ROLE",
      "outputs": [
        {
          "internalType": "bytes32",
          "name": "",
          "type": "bytes32"
        }
      ],
      "stateMutability": "view",
      "type": "function"
    },
    {
      "inputs": [
        {
          "internalType": "address",
          "name": "_erc20",
          "type": "address"
        },
        {
          "internalType": "bool",
          "name": "_isAllowed",
          "type": "bool"
        },
        {
          "internalType": "address",
          "name": "_oracleFeed",
          "type": "address"
        }
      ],
      "name": "allowTokenPayment",
      "outputs": [],
      "stateMutability": "nonpayable",
      "type": "function"
    },
    {
      "inputs": [
        {
          "internalType": "address",
          "name": "_tokenPayment",
          "type": "address"
        }
      ],
      "name": "calculateAmountPayment",
      "outputs": [
        {
          "internalType": "uint256",
          "name": "",
          "type": "uint256"
        }
      ],
      "stateMutability": "view",
      "type": "function"
    },
    {
      "inputs": [
        {
          "internalType": "uint256",
          "name": "",
          "type": "uint256"
        }
      ],
      "name": "dataTypesMap",
      "outputs": [
        {
          "internalType": "bool",
          "name": "",
          "type": "bool"
        }
      ],
      "stateMutability": "view",
      "type": "function"
    },
    {
      "inputs": [
        {
          "internalType": "bytes32",
          "name": "_hashWalletSig",
          "type": "bytes32"
        },
        {
          "internalType": "address",
          "name": "_userAddr",
          "type": "address"
        },
        {
          "internalType": "uint256[]",
          "name": "_dataTypes",
          "type": "uint256[]"
        }
      ],
      "name": "getBlockNumbers",
      "outputs": [
        {
          "internalType": "uint256[]",
          "name": "",
          "type": "uint256[]"
        }
      ],
      "stateMutability": "view",
      "type": "function"
    },
    {
      "inputs": [
        {
          "internalType": "bytes32",
          "name": "_hashWalletSig",
          "type": "bytes32"
        },
        {
          "internalType": "uint256[]",
          "name": "_dataTypes",
          "type": "uint256[]"
        }
      ],
      "name": "getNonces",
      "outputs": [
        {
          "internalType": "uint8[]",
          "name": "",
          "type": "uint8[]"
        },
        {
          "internalType": "bytes32[]",
          "name": "",
          "type": "bytes32[]"
        }
      ],
      "stateMutability": "view",
      "type": "function"
    },
    {
      "inputs": [
        {
          "internalType": "bytes32",
          "name": "role",
          "type": "bytes32"
        }
      ],
      "name": "getRoleAdmin",
      "outputs": [
        {
          "internalType": "bytes32",
          "name": "",
          "type": "bytes32"
        }
      ],
      "stateMutability": "view",
      "type": "function"
    },
    {
      "inputs": [
        {
          "internalType": "bytes32",
          "name": "role",
          "type": "bytes32"
        },
        {
          "internalType": "address",
          "name": "account",
          "type": "address"
        }
      ],
      "name": "grantRole",
      "outputs": [],
      "stateMutability": "nonpayable",
      "type": "function"
    },
    {
      "inputs": [
        {
          "internalType": "bytes32",
          "name": "role",
          "type": "bytes32"
        },
        {
          "internalType": "address",
          "name": "account",
          "type": "address"
        }
      ],
      "name": "hasRole",
      "outputs": [
        {
          "internalType": "bool",
          "name": "",
          "type": "bool"
        }
      ],
      "stateMutability": "view",
      "type": "function"
    },
    {
      "inputs": [
        {
          "internalType": "address",
          "name": "_governance",
          "type": "address"
        },
        {
          "internalType": "address",
          "name": "_treasury",
          "type": "address"
        },
        {
          "internalType": "address",
          "name": "_attestor",
          "type": "address"
        },
        {
          "internalType": "address",
          "name": "_pauser",
          "type": "address"
        }
      ],
      "name": "initialize",
      "outputs": [],
      "stateMutability": "nonpayable",
      "type": "function"
    },
    {
      "inputs": [],
      "name": "pause",
      "outputs": [],
      "stateMutability": "nonpayable",
      "type": "function"
    },
    {
      "inputs": [],
      "name": "paused",
      "outputs": [
        {
          "internalType": "bool",
          "name": "",
          "type": "bool"
        }
      ],
      "stateMutability": "view",
      "type": "function"
    },
    {
      "inputs": [
        {
          "internalType": "bytes32[]",
          "name": "_hashWalletSigAndAddrs",
          "type": "bytes32[]"
        },
        {
          "internalType": "bytes32[]",
          "name": "_attestations",
          "type": "bytes32[]"
        },
        {
          "internalType": "bytes32[]",
          "name": "_nonces",
          "type": "bytes32[]"
        },
        {
          "internalType": "bytes32[]",
          "name": "_kIDs",
          "type": "bytes32[]"
        },
        {
          "internalType": "uint256[]",
          "name": "_dataTypes",
          "type": "uint256[]"
        }
      ],
      "name": "postAttributes",
      "outputs": [],
      "stateMutability": "nonpayable",
      "type": "function"
    },
    {
      "inputs": [
        {
          "internalType": "bytes32",
          "name": "_hashWalletSig",
          "type": "bytes32"
        },
        {
          "internalType": "address",
          "name": "_userAddr",
          "type": "address"
        },
        {
          "internalType": "bytes32[]",
          "name": "_nonceSigsKD",
          "type": "bytes32[]"
        },
        {
          "internalType": "uint256[]",
          "name": "_dataTypes",
          "type": "uint256[]"
        },
        {
          "internalType": "bytes32[]",
          "name": "_rawValues",
          "type": "bytes32[]"
        },
        {
          "internalType": "address",
          "name": "_tokenPayment",
          "type": "address"
        }
      ],
      "name": "queryAttributesMatch",
      "outputs": [
        {
          "internalType": "bytes32",
          "name": "",
          "type": "bytes32"
        },
        {
          "internalType": "uint8[]",
          "name": "",
          "type": "uint8[]"
        }
      ],
      "stateMutability": "nonpayable",
      "type": "function"
    },
    {
      "inputs": [
        {
          "internalType": "bytes32",
          "name": "role",
          "type": "bytes32"
        },
        {
          "internalType": "address",
          "name": "account",
          "type": "address"
        }
      ],
      "name": "renounceRole",
      "outputs": [],
      "stateMutability": "nonpayable",
      "type": "function"
    },
    {
      "inputs": [
        {
          "internalType": "bytes32",
          "name": "role",
          "type": "bytes32"
        },
        {
          "internalType": "address",
          "name": "account",
          "type": "address"
        }
      ],
      "name": "revokeRole",
      "outputs": [],
      "stateMutability": "nonpayable",
      "type": "function"
    },
    {
      "inputs": [
        {
          "internalType": "uint256",
          "name": "_dataType",
          "type": "uint256"
        },
        {
          "internalType": "bool",
          "name": "_isActive",
          "type": "bool"
        }
      ],
      "name": "setDataTypeStatus",
      "outputs": [],
      "stateMutability": "nonpayable",
      "type": "function"
    },
    {
      "inputs": [
        {
          "internalType": "uint256",
          "name": "_transactionCostUSD",
          "type": "uint256"
        }
      ],
      "name": "setTransactionCostUSD",
      "outputs": [],
      "stateMutability": "nonpayable",
      "type": "function"
    },
    {
      "inputs": [
        {
          "internalType": "address",
          "name": "_treasury",
          "type": "address"
        }
      ],
      "name": "setTreasury",
      "outputs": [],
      "stateMutability": "nonpayable",
      "type": "function"
    },
    {
      "inputs": [
        {
          "internalType": "bytes4",
          "name": "interfaceId",
          "type": "bytes4"
        }
      ],
      "name": "supportsInterface",
      "outputs": [
        {
          "internalType": "bool",
          "name": "",
          "type": "bool"
        }
      ],
      "stateMutability": "view",
      "type": "function"
    },
    {
      "inputs": [
        {
          "internalType": "address",
          "name": "",
          "type": "address"
        }
      ],
      "name": "tokenAllowedPaymentMap",
      "outputs": [
        {
          "internalType": "bool",
          "name": "",
          "type": "bool"
        }
      ],
      "stateMutability": "view",
      "type": "function"
    },
    {
      "inputs": [],
      "name": "transactionCostUSD",
      "outputs": [
        {
          "internalType": "uint256",
          "name": "",
          "type": "uint256"
        }
      ],
      "stateMutability": "view",
      "type": "function"
    },
    {
      "inputs": [],
      "name": "treasury",
      "outputs": [
        {
          "internalType": "address",
          "name": "",
          "type": "address"
        }
      ],
      "stateMutability": "view",
      "type": "function"
    },
    {
      "inputs": [],
      "name": "unpause",
      "outputs": [],
      "stateMutability": "nonpayable",
      "type": "function"
    },
    {
      "inputs": [
        {
          "internalType": "address",
          "name": "newImplementation",
          "type": "address"
        }
      ],
      "name": "upgradeTo",
      "outputs": [],
      "stateMutability": "nonpayable",
      "type": "function"
    },
    {
      "inputs": [
        {
          "internalType": "address",
          "name": "newImplementation",
          "type": "address"
        },
        {
          "internalType": "bytes",
          "name": "data",
          "type": "bytes"
        }
      ],
      "name": "upgradeToAndCall",
      "outputs": [],
      "stateMutability": "payable",
      "type": "function"
    }
  ],
  "bytecode": "0x608060405234801561001057600080fd5b5061583180620000216000396000f3fe6080604052600436106101815760003560e01c806361d027b3116100d1578063cd56650a1161008a578063e668150b11610064578063e668150b14610585578063f0f44260146105c2578063f8c8765e146105eb578063fbbe800c1461061457610181565b8063cd56650a1461050a578063d547741f14610533578063deb57f441461055c57610181565b806361d027b3146103e65780636576c08e14610411578063703426c11461044e5780638456cb591461048b57806391d14854146104a2578063a217fddf146104df57610181565b80633659cfe61161013e5780634a585288116101185780634a585288146103395780634f1ef2861461037657806350926132146103925780635c975abb146103bb57610181565b80633659cfe6146102bb5780633f4ba83a146102e4578063499b1163146102fb57610181565b806301ffc9a7146101865780630cff104a146101c3578063248a9ca3146101ee5780632f2ff15d1461022b5780633231cd451461025457806336568abe14610292575b600080fd5b34801561019257600080fd5b506101ad60048036038101906101a89190613c07565b61063d565b6040516101ba91906145f9565b60405180910390f35b3480156101cf57600080fd5b506101d86106b7565b6040516101e59190614b4f565b60405180910390f35b3480156101fa57600080fd5b50610215600480360381019061021091906139ff565b6106bd565b6040516102229190614614565b60405180910390f35b34801561023757600080fd5b50610252600480360381019061024d9190613a28565b6106dc565b005b34801561026057600080fd5b5061027b60048036038101906102769190613baf565b610705565b6040516102899291906145c2565b60405180910390f35b34801561029e57600080fd5b506102b960048036038101906102b49190613a28565b6109c5565b005b3480156102c757600080fd5b506102e260048036038101906102dd91906137a2565b610a48565b005b3480156102f057600080fd5b506102f9610a6f565b005b34801561030757600080fd5b50610322600480360381019061031d9190613a64565b610b77565b604051610330929190614658565b60405180910390f35b34801561034557600080fd5b50610360600480360381019061035b9190613c71565b610fe9565b60405161036d91906145f9565b60405180910390f35b610390600480360381019061038b919061387d565b611009565b005b34801561039e57600080fd5b506103b960048036038101906103b49190613cc3565b611022565b005b3480156103c757600080fd5b506103d061113d565b6040516103dd91906145f9565b60405180910390f35b3480156103f257600080fd5b506103fb611150565b60405161040891906144ee565b60405180910390f35b34801561041d57600080fd5b50610438600480360381019061043391906137a2565b611176565b6040516104459190614b4f565b60405180910390f35b34801561045a57600080fd5b50610475600480360381019061047091906137a2565b611182565b60405161048291906145f9565b60405180910390f35b34801561049757600080fd5b506104a06111a2565b005b3480156104ae57600080fd5b506104c960048036038101906104c49190613a28565b6112aa565b6040516104d691906145f9565b60405180910390f35b3480156104eb57600080fd5b506104f4611314565b6040516105019190614614565b60405180910390f35b34801561051657600080fd5b50610531600480360381019061052c91906138d1565b61131b565b005b34801561053f57600080fd5b5061055a60048036038101906105559190613a28565b611620565b005b34801561056857600080fd5b50610583600480360381019061057e9190613c71565b611649565b005b34801561059157600080fd5b506105ac60048036038101906105a79190613b43565b6117b5565b6040516105b991906145a0565b60405180910390f35b3480156105ce57600080fd5b506105e960048036038101906105e491906137a2565b61192b565b005b3480156105f757600080fd5b50610612600480360381019061060d91906137cb565b611b1d565b005b34801561062057600080fd5b5061063b6004803603810190610636919061382e565b611edd565b005b60007f7965db0b000000000000000000000000000000000000000000000000000000007bffffffffffffffffffffffffffffffffffffffffffffffffffffffff1916827bffffffffffffffffffffffffffffffffffffffffffffffffffffffff191614806106b057506106af8261241a565b5b9050919050565b606b5481565b6000806000838152602001908152602001600020600101549050919050565b6106e5826106bd565b6106f6816106f1612484565b61248c565b6107008383612529565b505050565b60608060008484905067ffffffffffffffff81111561074d577f4e487b7100000000000000000000000000000000000000000000000000000000600052604160045260246000fd5b60405190808252806020026020018201604052801561077b5781602001602082028036833780820191505090505b50905060008585905067ffffffffffffffff8111156107c3577f4e487b7100000000000000000000000000000000000000000000000000000000600052604160045260246000fd5b6040519080825280602002602001820160405280156107f15781602001602082028036833780820191505090505b5090506000873360405160200161080992919061462f565b604051602081830303815290604052805190602001209050600080600090505b888890508110156109b25761087d838a8a84818110610871577f4e487b7100000000000000000000000000000000000000000000000000000000600052603260045260246000fd5b90506020020135612609565b9091925090505080925050818582815181106108c2577f4e487b7100000000000000000000000000000000000000000000000000000000600052603260045260246000fd5b6020026020010181815250506000801b82141561091757600180811115610912577f4e487b7100000000000000000000000000000000000000000000000000000000600052602160045260246000fd5b610952565b60006001811115610951577f4e487b7100000000000000000000000000000000000000000000000000000000600052602160045260246000fd5b5b84828151811061098b577f4e487b7100000000000000000000000000000000000000000000000000000000600052603260045260246000fd5b602002602001019060ff16908160ff168152505080806109aa90614f03565b915050610829565b5082849550955050505050935093915050565b6109cd612484565b73ffffffffffffffffffffffffffffffffffffffff168173ffffffffffffffffffffffffffffffffffffffff1614610a3a576040517f08c379a0000000000000000000000000000000000000000000000000000000008152600401610a3190614b0f565b60405180910390fd5b610a4482826126bd565b5050565b610a518161279e565b610a6c816040518060200160405280600081525060006127ed565b50565b610a997f65d7a28e3265b37a6474929f336521b332c1681b933f6cb9f3376673440d862a336112aa565b610ad8576040517f08c379a0000000000000000000000000000000000000000000000000000000008152600401610acf90614a8f565b60405180910390fd5b60011515606c60009054906101000a900460ff16151514610b2e576040517f08c379a0000000000000000000000000000000000000000000000000000000008152600401610b259061490f565b60405180910390fd5b6000606c60006101000a81548160ff0219169083151502179055507f06816474b0021c4d07945d434c3c6403f2e1f70120c8c7b43993bd36805d03ef60405160405180910390a1565b600060608686905089899050148015610b9557508484905089899050145b610bd4576040517f08c379a0000000000000000000000000000000000000000000000000000000008152600401610bcb906147cf565b60405180910390fd5b610bdd836129be565b60008585905067ffffffffffffffff811115610c22577f4e487b7100000000000000000000000000000000000000000000000000000000600052604160045260246000fd5b604051908082528060200260200182016040528015610c505781602001602082028036833780820191505090505b50905060008060008e8e604051602001610c6b92919061462f565b60405160208183030381529060405280519060200120905060005b8b8b9050811015610fd057606660008d8d84818110610cce577f4e487b7100000000000000000000000000000000000000000000000000000000600052603260045260246000fd5b90506020020135815260200190815260200160002060009054906101000a900460ff16610d30576040517f08c379a0000000000000000000000000000000000000000000000000000000008152600401610d279061472f565b60405180910390fd5b6067600083815260200190815260200160002060008d8d84818110610d7e577f4e487b7100000000000000000000000000000000000000000000000000000000600052603260045260246000fd5b90506020020135815260200190815260200160002092506000801b83600201541415610e305760006002811115610dde577f4e487b7100000000000000000000000000000000000000000000000000000000600052602160045260246000fd5b858281518110610e17577f4e487b7100000000000000000000000000000000000000000000000000000000600052603260045260246000fd5b602002602001019060ff16908160ff1681525050610fbd565b600083600201548f8f84818110610e70577f4e487b7100000000000000000000000000000000000000000000000000000000600052603260045260246000fd5b90506020020135848d8d86818110610eb1577f4e487b7100000000000000000000000000000000000000000000000000000000600052603260045260246000fd5b90506020020135604051602001610ecb9493929190614688565b60405160208183030381529060405280519060200120905080846000015414610f2c57600280811115610f27577f4e487b7100000000000000000000000000000000000000000000000000000000600052602160045260246000fd5b610f67565b60016002811115610f66577f4e487b7100000000000000000000000000000000000000000000000000000000600052602160045260246000fd5b5b868381518110610fa0577f4e487b7100000000000000000000000000000000000000000000000000000000600052603260045260246000fd5b602002602001019060ff16908160ff168152505083600201549450505b8080610fc890614f03565b915050610c86565b5082849550955050505050995099975050505050505050565b60666020528060005260406000206000915054906101000a900460ff1681565b6110128261279e565b61101e828260016127ed565b5050565b61102f6000801b336112aa565b61106e576040517f08c379a00000000000000000000000000000000000000000000000000000000081526004016110659061482f565b60405180910390fd5b8015156066600084815260200190815260200160002060009054906101000a900460ff16151514156110d5576040517f08c379a00000000000000000000000000000000000000000000000000000000081526004016110cc9061498f565b60405180910390fd5b806066600084815260200190815260200160002060006101000a81548160ff0219169083151502179055507fe396a5aa5e45159af8cfc7f403d340c685f7552874ea096eac63bf4c1f6dd59f8282604051611131929190614b6a565b60405180910390a15050565b606c60009054906101000a900460ff1681565b606a60009054906101000a900473ffffffffffffffffffffffffffffffffffffffff1681565b60006105399050919050565b60686020528060005260406000206000915054906101000a900460ff1681565b6111cc7f65d7a28e3265b37a6474929f336521b332c1681b933f6cb9f3376673440d862a336112aa565b61120b576040517f08c379a000000000000000000000000000000000000000000000000000000000815260040161120290614a8f565b60405180910390fd5b60001515606c60009054906101000a900460ff16151514611261576040517f08c379a000000000000000000000000000000000000000000000000000000000815260040161125890614aaf565b60405180910390fd5b6001606c60006101000a81548160ff0219169083151502179055507f7a81fbd03590051e5303bffa6481eb76ac6081d4a2d96aca8b1af9b5c8028fed60405160405180910390a1565b600080600084815260200190815260200160002060000160008373ffffffffffffffffffffffffffffffffffffffff1673ffffffffffffffffffffffffffffffffffffffff16815260200190815260200160002060009054906101000a900460ff16905092915050565b6000801b81565b60001515606c60009054906101000a900460ff16151514611371576040517f08c379a000000000000000000000000000000000000000000000000000000000815260040161136890614acf565b60405180910390fd5b61139b7fa7e0cd0f2772b23ee4c329892293a6bd99d48c306b094d6d008c9a8bb8b731e4336112aa565b6113da576040517f08c379a00000000000000000000000000000000000000000000000000000000081526004016113d19061478f565b60405180910390fd5b6000888890501180156113f05750600a88889050105b61142f576040517f08c379a0000000000000000000000000000000000000000000000000000000008152600401611426906147af565b60405180910390fd5b878790508a8a90501480156114495750858590508a8a9050145b801561145a5750838390508a8a9050145b801561146b5750818190508a8a9050145b6114aa576040517f08c379a00000000000000000000000000000000000000000000000000000000081526004016114a19061492f565b60405180910390fd5b60005b88889050811015611613576116008b8b838181106114f4577f4e487b7100000000000000000000000000000000000000000000000000000000600052603260045260246000fd5b905060200201358a8a84818110611534577f4e487b7100000000000000000000000000000000000000000000000000000000600052603260045260246000fd5b90506020020135898985818110611574577f4e487b7100000000000000000000000000000000000000000000000000000000600052603260045260246000fd5b905060200201358888868181106115b4577f4e487b7100000000000000000000000000000000000000000000000000000000600052603260045260246000fd5b905060200201358787878181106115f4577f4e487b7100000000000000000000000000000000000000000000000000000000600052603260045260246000fd5b90506020020135612b7d565b808061160b90614f03565b9150506114ad565b5050505050505050505050565b611629826106bd565b61163a81611635612484565b61248c565b61164483836126bd565b505050565b6116566000801b336112aa565b611695576040517f08c379a000000000000000000000000000000000000000000000000000000000815260040161168c9061482f565b60405180910390fd5b80606b5414156116da576040517f08c379a00000000000000000000000000000000000000000000000000000000081526004016116d190614b2f565b60405180910390fd5b678ac7230489e800008110611724576040517f08c379a000000000000000000000000000000000000000000000000000000000815260040161171b906147ef565b60405180910390fd5b6000811015611768576040517f08c379a000000000000000000000000000000000000000000000000000000000815260040161175f906149af565b60405180910390fd5b6000606b54905081606b819055507f8b225804c60832661169b8ba575633ea54b5942c8e9afbef8f0ac6721202c9d581606b546040516117a9929190614b93565b60405180910390a15050565b606060008383905067ffffffffffffffff8111156117fc577f4e487b7100000000000000000000000000000000000000000000000000000000600052604160045260246000fd5b60405190808252806020026020018201604052801561182a5781602001602082028036833780820191505090505b5090506000868660405160200161184292919061462f565b604051602081830303815290604052805190602001209050600080600090505b8686905081101561191c576118b6838888848181106118aa577f4e487b7100000000000000000000000000000000000000000000000000000000600052603260045260246000fd5b90506020020135612609565b90919250909150905080925050818482815181106118fd577f4e487b7100000000000000000000000000000000000000000000000000000000600052603260045260246000fd5b602002602001018181525050808061191490614f03565b915050611862565b50829350505050949350505050565b6119386000801b336112aa565b611977576040517f08c379a000000000000000000000000000000000000000000000000000000000815260040161196e9061482f565b60405180910390fd5b600073ffffffffffffffffffffffffffffffffffffffff168173ffffffffffffffffffffffffffffffffffffffff1614156119e7576040517f08c379a00000000000000000000000000000000000000000000000000000000081526004016119de9061488f565b60405180910390fd5b606a60009054906101000a900473ffffffffffffffffffffffffffffffffffffffff1673ffffffffffffffffffffffffffffffffffffffff168173ffffffffffffffffffffffffffffffffffffffff161415611a78576040517f08c379a0000000000000000000000000000000000000000000000000000000008152600401611a6f90614aef565b60405180910390fd5b6000606a60009054906101000a900473ffffffffffffffffffffffffffffffffffffffff16905081606a60006101000a81548173ffffffffffffffffffffffffffffffffffffffff021916908373ffffffffffffffffffffffffffffffffffffffff1602179055507fd3249cb37ead034d851af87ea663cc239fc20e801a85f4d311cb77edf4151e1d8183604051611b11929190614509565b60405180910390a15050565b60018054906101000a900460ff1680611b435750600160009054906101000a900460ff16155b611b82576040517f08c379a0000000000000000000000000000000000000000000000000000000008152600401611b79906148ef565b60405180910390fd5b600060018054906101000a900460ff161590508015611bd05760018060016101000a81548160ff02191690831515021790555060018060006101000a81548160ff0219169083151502179055505b600073ffffffffffffffffffffffffffffffffffffffff168473ffffffffffffffffffffffffffffffffffffffff161415611c40576040517f08c379a0000000000000000000000000000000000000000000000000000000008152600401611c379061488f565b60405180910390fd5b600073ffffffffffffffffffffffffffffffffffffffff168573ffffffffffffffffffffffffffffffffffffffff161415611cb0576040517f08c379a0000000000000000000000000000000000000000000000000000000008152600401611ca79061480f565b60405180910390fd5b600073ffffffffffffffffffffffffffffffffffffffff168373ffffffffffffffffffffffffffffffffffffffff161415611d20576040517f08c379a0000000000000000000000000000000000000000000000000000000008152600401611d1790614a2f565b60405180910390fd5b600073ffffffffffffffffffffffffffffffffffffffff168273ffffffffffffffffffffffffffffffffffffffff161415611d90576040517f08c379a0000000000000000000000000000000000000000000000000000000008152600401611d87906148af565b60405180910390fd5b83606a60006101000a81548173ffffffffffffffffffffffffffffffffffffffff021916908373ffffffffffffffffffffffffffffffffffffffff160217905550611dde6000801b86612cc7565b611e087fa7e0cd0f2772b23ee4c329892293a6bd99d48c306b094d6d008c9a8bb8b731e484612cc7565b611e327f65d7a28e3265b37a6474929f336521b332c1681b933f6cb9f3376673440d862a83612cc7565b60016066600080815260200190815260200160002060006101000a81548160ff0219169083151502179055506001606660006001815260200190815260200160002060006101000a81548160ff021916908315150217905550670de0b6b3a7640000606b819055506000606c60006101000a81548160ff0219169083151502179055508015611ed65760006001806101000a81548160ff0219169083151502179055505b5050505050565b611eea6000801b336112aa565b611f29576040517f08c379a0000000000000000000000000000000000000000000000000000000008152600401611f209061482f565b60405180910390fd5b811515606860008573ffffffffffffffffffffffffffffffffffffffff1673ffffffffffffffffffffffffffffffffffffffff16815260200190815260200160002060009054906101000a900460ff1615151415806120135750606960008473ffffffffffffffffffffffffffffffffffffffff1673ffffffffffffffffffffffffffffffffffffffff16815260200190815260200160002060009054906101000a900473ffffffffffffffffffffffffffffffffffffffff1673ffffffffffffffffffffffffffffffffffffffff168173ffffffffffffffffffffffffffffffffffffffff1614155b612052576040517f08c379a00000000000000000000000000000000000000000000000000000000081526004016120499061484f565b60405180910390fd5b600073ffffffffffffffffffffffffffffffffffffffff168373ffffffffffffffffffffffffffffffffffffffff1614156120c2576040517f08c379a00000000000000000000000000000000000000000000000000000000081526004016120b99061496f565b60405180910390fd5b600073ffffffffffffffffffffffffffffffffffffffff168173ffffffffffffffffffffffffffffffffffffffff161415612132576040517f08c379a000000000000000000000000000000000000000000000000000000000815260040161212990614a4f565b60405180910390fd5b6000839050600082905060128173ffffffffffffffffffffffffffffffffffffffff1663313ce5676040518163ffffffff1660e01b815260040160206040518083038186803b15801561218457600080fd5b505afa158015612198573d6000803e3d6000fd5b505050506040513d601f19601f820116820180604052508101906121bc9190613cff565b60ff161115612200576040517f08c379a00000000000000000000000000000000000000000000000000000000081526004016121f7906148cf565b60405180910390fd5b8073ffffffffffffffffffffffffffffffffffffffff16637284e4166040518163ffffffff1660e01b815260040160006040518083038186803b15801561224657600080fd5b505afa15801561225a573d6000803e3d6000fd5b505050506040513d6000823e3d601f19601f820116820180604052508101906122839190613c30565b508173ffffffffffffffffffffffffffffffffffffffff166318160ddd6040518163ffffffff1660e01b815260040160206040518083038186803b1580156122ca57600080fd5b505afa1580156122de573d6000803e3d6000fd5b505050506040513d601f19601f820116820180604052508101906123029190613c9a565b5083606860008773ffffffffffffffffffffffffffffffffffffffff1673ffffffffffffffffffffffffffffffffffffffff16815260200190815260200160002060006101000a81548160ff02191690831515021790555080606960008773ffffffffffffffffffffffffffffffffffffffff1673ffffffffffffffffffffffffffffffffffffffff16815260200190815260200160002060006101000a81548173ffffffffffffffffffffffffffffffffffffffff021916908373ffffffffffffffffffffffffffffffffffffffff1602179055507f9bc9087dc26a9fb86164103b1f1dfad138792783f9e85d3883751bc78f492b6c85858560405161240b93929190614569565b60405180910390a15050505050565b60007f01ffc9a7000000000000000000000000000000000000000000000000000000007bffffffffffffffffffffffffffffffffffffffffffffffffffffffff1916827bffffffffffffffffffffffffffffffffffffffffffffffffffffffff1916149050919050565b600033905090565b61249682826112aa565b612525576124bb8173ffffffffffffffffffffffffffffffffffffffff166014612cd5565b6124c98360001c6020612cd5565b6040516020016124da9291906144b4565b6040516020818303038152906040526040517f08c379a000000000000000000000000000000000000000000000000000000000815260040161251c91906146cd565b60405180910390fd5b5050565b61253382826112aa565b61260557600160008084815260200190815260200160002060000160008373ffffffffffffffffffffffffffffffffffffffff1673ffffffffffffffffffffffffffffffffffffffff16815260200190815260200160002060006101000a81548160ff0219169083151502179055506125aa612484565b73ffffffffffffffffffffffffffffffffffffffff168173ffffffffffffffffffffffffffffffffffffffff16837f2f8788117e7eff1d82e926ec794901d17c78024a50270940304540a733656f0d60405160405180910390a45b5050565b6000806000806066600086815260200190815260200160002060009054906101000a900460ff1661266f576040517f08c379a00000000000000000000000000000000000000000000000000000000081526004016126669061472f565b60405180910390fd5b60006067600088815260200190815260200160002060008781526020019081526020016000209050806000015481600101548260020154836003015494509450945094505092959194509250565b6126c782826112aa565b1561279a57600080600084815260200190815260200160002060000160008373ffffffffffffffffffffffffffffffffffffffff1673ffffffffffffffffffffffffffffffffffffffff16815260200190815260200160002060006101000a81548160ff02191690831515021790555061273f612484565b73ffffffffffffffffffffffffffffffffffffffff168173ffffffffffffffffffffffffffffffffffffffff16837ff6391f5c32d9c69d2a47ea670b442974b53935d1edc7fd64eb21e047a839171b60405160405180910390a45b5050565b6127ab6000801b336112aa565b6127ea576040517f08c379a00000000000000000000000000000000000000000000000000000000081526004016127e19061482f565b60405180910390fd5b50565b60006127f7612fcf565b905061280284613026565b60008351118061280f5750815b156128205761281e84846130df565b505b600061284e7f4910fdfa16fed3260ed0e7147f7cc6da11a60208b5b9406d12a635614ffd914360001b6131c3565b90508060000160009054906101000a900460ff166129b75760018160000160006101000a81548160ff02191690831515021790555061291a858360405160240161289891906144ee565b6040516020818303038152906040527f3659cfe6000000000000000000000000000000000000000000000000000000007bffffffffffffffffffffffffffffffffffffffffffffffffffffffff19166020820180517bffffffffffffffffffffffffffffffffffffffffffffffffffffffff83818316178352505050506130df565b5060008160000160006101000a81548160ff021916908315150217905550612940612fcf565b73ffffffffffffffffffffffffffffffffffffffff168273ffffffffffffffffffffffffffffffffffffffff16146129ad576040517f08c379a00000000000000000000000000000000000000000000000000000000081526004016129a49061476f565b60405180910390fd5b6129b6856131cd565b5b5050505050565b606860008273ffffffffffffffffffffffffffffffffffffffff1673ffffffffffffffffffffffffffffffffffffffff16815260200190815260200160002060009054906101000a900460ff16612a4a576040517f08c379a0000000000000000000000000000000000000000000000000000000008152600401612a41906146ef565b60405180910390fd5b60008190506000612a5a83611176565b9050808273ffffffffffffffffffffffffffffffffffffffff1663dd62ed3e33306040518363ffffffff1660e01b8152600401612a98929190614509565b60206040518083038186803b158015612ab057600080fd5b505afa158015612ac4573d6000803e3d6000fd5b505050506040513d601f19601f82011682018060405250810190612ae89190613c9a565b1015612b29576040517f08c379a0000000000000000000000000000000000000000000000000000000008152600401612b209061474f565b60405180910390fd5b612b7833606a60009054906101000a900473ffffffffffffffffffffffffffffffffffffffff16838573ffffffffffffffffffffffffffffffffffffffff1661321c909392919063ffffffff16565b505050565b6066600082815260200190815260200160002060009054906101000a900460ff16612bdd576040517f08c379a0000000000000000000000000000000000000000000000000000000008152600401612bd49061472f565b60405180910390fd5b6000801b8314158015612bf357506000801b8414155b8015612c0257506000801b8514155b8015612c1157506000801b8214155b612c50576040517f08c379a0000000000000000000000000000000000000000000000000000000008152600401612c47906149ef565b60405180910390fd5b604051806080016040528085815260200184815260200183815260200143815250606760008781526020019081526020016000206000838152602001908152602001600020600082015181600001556020820151816001015560408201518160020155606082015181600301559050505050505050565b612cd18282612529565b5050565b606060006002836002612ce89190614d81565b612cf29190614d2b565b67ffffffffffffffff811115612d31577f4e487b7100000000000000000000000000000000000000000000000000000000600052604160045260246000fd5b6040519080825280601f01601f191660200182016040528015612d635781602001600182028036833780820191505090505b5090507f300000000000000000000000000000000000000000000000000000000000000081600081518110612dc1577f4e487b7100000000000000000000000000000000000000000000000000000000600052603260045260246000fd5b60200101907effffffffffffffffffffffffffffffffffffffffffffffffffffffffffffff1916908160001a9053507f780000000000000000000000000000000000000000000000000000000000000081600181518110612e4b577f4e487b7100000000000000000000000000000000000000000000000000000000600052603260045260246000fd5b60200101907effffffffffffffffffffffffffffffffffffffffffffffffffffffffffffff1916908160001a90535060006001846002612e8b9190614d81565b612e959190614d2b565b90505b6001811115612f81577f3031323334353637383961626364656600000000000000000000000000000000600f861660108110612efd577f4e487b7100000000000000000000000000000000000000000000000000000000600052603260045260246000fd5b1a60f81b828281518110612f3a577f4e487b7100000000000000000000000000000000000000000000000000000000600052603260045260246000fd5b60200101907effffffffffffffffffffffffffffffffffffffffffffffffffffffffffffff1916908160001a905350600485901c945080612f7a90614ea8565b9050612e98565b5060008414612fc5576040517f08c379a0000000000000000000000000000000000000000000000000000000008152600401612fbc9061470f565b60405180910390fd5b8091505092915050565b6000612ffd7f360894a13ba1a3210667c828492db98dca3e2076cc3735a920a3ca505d382bbc60001b6132a5565b60000160009054906101000a900473ffffffffffffffffffffffffffffffffffffffff16905090565b61302f816132af565b61306e576040517f08c379a00000000000000000000000000000000000000000000000000000000081526004016130659061494f565b60405180910390fd5b8061309b7f360894a13ba1a3210667c828492db98dca3e2076cc3735a920a3ca505d382bbc60001b6132a5565b60000160006101000a81548173ffffffffffffffffffffffffffffffffffffffff021916908373ffffffffffffffffffffffffffffffffffffffff16021790555050565b60606130ea836132af565b613129576040517f08c379a0000000000000000000000000000000000000000000000000000000008152600401613120906149cf565b60405180910390fd5b6000808473ffffffffffffffffffffffffffffffffffffffff1684604051613151919061449d565b600060405180830381855af49150503d806000811461318c576040519150601f19603f3d011682016040523d82523d6000602084013e613191565b606091505b50915091506131b982826040518060600160405280602781526020016157d5602791396132c2565b9250505092915050565b6000819050919050565b6131d681613026565b8073ffffffffffffffffffffffffffffffffffffffff167fbc7cd75a20ee27fd9adebab32041f755214dbc6bffa90cc0225b39da2e5c2d3b60405160405180910390a250565b61329f846323b872dd60e01b85858560405160240161323d93929190614532565b604051602081830303815290604052907bffffffffffffffffffffffffffffffffffffffffffffffffffffffff19166020820180517bffffffffffffffffffffffffffffffffffffffffffffffffffffffff8381831617835250505050613329565b50505050565b6000819050919050565b600080823b905060008111915050919050565b606083156132d257829050613322565b6000835111156132e55782518084602001fd5b816040517f08c379a000000000000000000000000000000000000000000000000000000000815260040161331991906146cd565b60405180910390fd5b9392505050565b600061338b826040518060400160405280602081526020017f5361666545524332303a206c6f772d6c6576656c2063616c6c206661696c65648152508573ffffffffffffffffffffffffffffffffffffffff166133f09092919063ffffffff16565b90506000815111156133eb57808060200190518101906133ab91906139d6565b6133ea576040517f08c379a00000000000000000000000000000000000000000000000000000000081526004016133e190614a6f565b60405180910390fd5b5b505050565b60606133ff8484600085613408565b90509392505050565b60608247101561344d576040517f08c379a00000000000000000000000000000000000000000000000000000000081526004016134449061486f565b60405180910390fd5b6134568561351c565b613495576040517f08c379a000000000000000000000000000000000000000000000000000000000815260040161348c90614a0f565b60405180910390fd5b6000808673ffffffffffffffffffffffffffffffffffffffff1685876040516134be919061449d565b60006040518083038185875af1925050503d80600081146134fb576040519150601f19603f3d011682016040523d82523d6000602084013e613500565b606091505b509150915061351082828661352f565b92505050949350505050565b600080823b905060008111915050919050565b6060831561353f5782905061358f565b6000835111156135525782518084602001fd5b816040517f08c379a000000000000000000000000000000000000000000000000000000000815260040161358691906146cd565b60405180910390fd5b9392505050565b60006135a96135a484614be1565b614bbc565b9050828152602081018484840111156135c157600080fd5b6135cc848285614e66565b509392505050565b60006135e76135e284614c12565b614bbc565b9050828152602081018484840111156135ff57600080fd5b61360a848285614e75565b509392505050565b6000813590506136218161574a565b92915050565b60008083601f84011261363957600080fd5b8235905067ffffffffffffffff81111561365257600080fd5b60208301915083602082028301111561366a57600080fd5b9250929050565b60008083601f84011261368357600080fd5b8235905067ffffffffffffffff81111561369c57600080fd5b6020830191508360208202830111156136b457600080fd5b9250929050565b6000813590506136ca81615761565b92915050565b6000815190506136df81615761565b92915050565b6000813590506136f481615778565b92915050565b6000813590506137098161578f565b92915050565b600082601f83011261372057600080fd5b8135613730848260208601613596565b91505092915050565b600082601f83011261374a57600080fd5b815161375a8482602086016135d4565b91505092915050565b600081359050613772816157a6565b92915050565b600081519050613787816157a6565b92915050565b60008151905061379c816157bd565b92915050565b6000602082840312156137b457600080fd5b60006137c284828501613612565b91505092915050565b600080600080608085870312156137e157600080fd5b60006137ef87828801613612565b945050602061380087828801613612565b935050604061381187828801613612565b925050606061382287828801613612565b91505092959194509250565b60008060006060848603121561384357600080fd5b600061385186828701613612565b9350506020613862868287016136bb565b925050604061387386828701613612565b9150509250925092565b6000806040838503121561389057600080fd5b600061389e85828601613612565b925050602083013567ffffffffffffffff8111156138bb57600080fd5b6138c78582860161370f565b9150509250929050565b60008060008060008060008060008060a08b8d0312156138f057600080fd5b60008b013567ffffffffffffffff81111561390a57600080fd5b6139168d828e01613627565b9a509a505060208b013567ffffffffffffffff81111561393557600080fd5b6139418d828e01613627565b985098505060408b013567ffffffffffffffff81111561396057600080fd5b61396c8d828e01613627565b965096505060608b013567ffffffffffffffff81111561398b57600080fd5b6139978d828e01613627565b945094505060808b013567ffffffffffffffff8111156139b657600080fd5b6139c28d828e01613671565b92509250509295989b9194979a5092959850565b6000602082840312156139e857600080fd5b60006139f6848285016136d0565b91505092915050565b600060208284031215613a1157600080fd5b6000613a1f848285016136e5565b91505092915050565b60008060408385031215613a3b57600080fd5b6000613a49858286016136e5565b9250506020613a5a85828601613612565b9150509250929050565b600080600080600080600080600060c08a8c031215613a8257600080fd5b6000613a908c828d016136e5565b9950506020613aa18c828d01613612565b98505060408a013567ffffffffffffffff811115613abe57600080fd5b613aca8c828d01613627565b975097505060608a013567ffffffffffffffff811115613ae957600080fd5b613af58c828d01613671565b955095505060808a013567ffffffffffffffff811115613b1457600080fd5b613b208c828d01613627565b935093505060a0613b338c828d01613612565b9150509295985092959850929598565b60008060008060608587031215613b5957600080fd5b6000613b67878288016136e5565b9450506020613b7887828801613612565b935050604085013567ffffffffffffffff811115613b9557600080fd5b613ba187828801613671565b925092505092959194509250565b600080600060408486031215613bc457600080fd5b6000613bd2868287016136e5565b935050602084013567ffffffffffffffff811115613bef57600080fd5b613bfb86828701613671565b92509250509250925092565b600060208284031215613c1957600080fd5b6000613c27848285016136fa565b91505092915050565b600060208284031215613c4257600080fd5b600082015167ffffffffffffffff811115613c5c57600080fd5b613c6884828501613739565b91505092915050565b600060208284031215613c8357600080fd5b6000613c9184828501613763565b91505092915050565b600060208284031215613cac57600080fd5b6000613cba84828501613778565b91505092915050565b60008060408385031215613cd657600080fd5b6000613ce485828601613763565b9250506020613cf5858286016136bb565b9150509250929050565b600060208284031215613d1157600080fd5b6000613d1f8482850161378d565b91505092915050565b6000613d348383613ea8565b60208301905092915050565b6000613d4c8383614470565b60208301905092915050565b6000613d64838361448e565b60208301905092915050565b613d7981614ddb565b82525050565b6000613d8a82614c73565b613d948185614cd1565b9350613d9f83614c43565b8060005b83811015613dd0578151613db78882613d28565b9750613dc283614caa565b925050600181019050613da3565b5085935050505092915050565b6000613de882614c7e565b613df28185614ce2565b9350613dfd83614c53565b8060005b83811015613e2e578151613e158882613d40565b9750613e2083614cb7565b925050600181019050613e01565b5085935050505092915050565b6000613e4682614c89565b613e508185614cf3565b9350613e5b83614c63565b8060005b83811015613e8c578151613e738882613d58565b9750613e7e83614cc4565b925050600181019050613e5f565b5085935050505092915050565b613ea281614ded565b82525050565b613eb181614df9565b82525050565b613ec081614df9565b82525050565b6000613ed182614c94565b613edb8185614d04565b9350613eeb818560208601614e75565b80840191505092915050565b6000613f0282614c9f565b613f0c8185614d0f565b9350613f1c818560208601614e75565b613f2581614faa565b840191505092915050565b6000613f3b82614c9f565b613f458185614d20565b9350613f55818560208601614e75565b80840191505092915050565b6000613f6e601383614d0f565b9150613f7982614fbb565b602082019050919050565b6000613f91602083614d0f565b9150613f9c82614fe4565b602082019050919050565b6000613fb4601483614d0f565b9150613fbf8261500d565b602082019050919050565b6000613fd7601683614d0f565b9150613fe282615036565b602082019050919050565b6000613ffa602f83614d0f565b91506140058261505f565b604082019050919050565b600061401d600d83614d0f565b9150614028826150ae565b602082019050919050565b6000614040602483614d0f565b915061404b826150d7565b604082019050919050565b6000614063600f83614d0f565b915061406e82615126565b602082019050919050565b6000614086601683614d0f565b91506140918261514f565b602082019050919050565b60006140a9601783614d0f565b91506140b482615178565b602082019050919050565b60006140cc600a83614d0f565b91506140d7826151a1565b602082019050919050565b60006140ef602183614d0f565b91506140fa826151ca565b604082019050919050565b6000614112602683614d0f565b915061411d82615219565b604082019050919050565b6000614135601583614d0f565b915061414082615268565b602082019050919050565b6000614158601383614d0f565b915061416382615291565b602082019050919050565b600061417b601483614d0f565b9150614186826152ba565b602082019050919050565b600061419e602e83614d0f565b91506141a9826152e3565b604082019050919050565b60006141c1601083614d0f565b91506141cc82615332565b602082019050919050565b60006141e4601083614d0f565b91506141ef8261535b565b602082019050919050565b6000614207602d83614d0f565b915061421282615384565b604082019050919050565b600061422a601583614d0f565b9150614235826153d3565b602082019050919050565b600061424d602083614d0f565b9150614258826153fc565b602082019050919050565b6000614270601983614d0f565b915061427b82615425565b602082019050919050565b6000614293602683614d0f565b915061429e8261544e565b604082019050919050565b60006142b6600b83614d0f565b91506142c18261549d565b602082019050919050565b60006142d9601d83614d0f565b91506142e4826154c6565b602082019050919050565b60006142fc601583614d0f565b9150614307826154ef565b602082019050919050565b600061431f601783614d20565b915061432a82615518565b601782019050919050565b6000614342601683614d0f565b915061434d82615541565b602082019050919050565b6000614365602a83614d0f565b91506143708261556a565b604082019050919050565b6000614388600b83614d0f565b9150614393826155b9565b602082019050919050565b60006143ab600e83614d0f565b91506143b6826155e2565b602082019050919050565b60006143ce600683614d0f565b91506143d98261560b565b602082019050919050565b60006143f1602483614d0f565b91506143fc82615634565b604082019050919050565b6000614414601183614d20565b915061441f82615683565b601182019050919050565b6000614437602f83614d0f565b9150614442826156ac565b604082019050919050565b600061445a602b83614d0f565b9150614465826156fb565b604082019050919050565b61447981614e4f565b82525050565b61448881614e4f565b82525050565b61449781614e59565b82525050565b60006144a98284613ec6565b915081905092915050565b60006144bf82614312565b91506144cb8285613f30565b91506144d682614407565b91506144e28284613f30565b91508190509392505050565b60006020820190506145036000830184613d70565b92915050565b600060408201905061451e6000830185613d70565b61452b6020830184613d70565b9392505050565b60006060820190506145476000830186613d70565b6145546020830185613d70565b614561604083018461447f565b949350505050565b600060608201905061457e6000830186613d70565b61458b6020830185613e99565b6145986040830184613d70565b949350505050565b600060208201905081810360008301526145ba8184613ddd565b905092915050565b600060408201905081810360008301526145dc8185613e3b565b905081810360208301526145f08184613d7f565b90509392505050565b600060208201905061460e6000830184613e99565b92915050565b60006020820190506146296000830184613eb7565b92915050565b60006040820190506146446000830185613eb7565b6146516020830184613d70565b9392505050565b600060408201905061466d6000830185613eb7565b818103602083015261467f8184613e3b565b90509392505050565b600060808201905061469d6000830187613eb7565b6146aa6020830186613eb7565b6146b76040830185613eb7565b6146c46060830184613eb7565b95945050505050565b600060208201905081810360008301526146e78184613ef7565b905092915050565b6000602082019050818103600083015261470881613f61565b9050919050565b6000602082019050818103600083015261472881613f84565b9050919050565b6000602082019050818103600083015261474881613fa7565b9050919050565b6000602082019050818103600083015261476881613fca565b9050919050565b6000602082019050818103600083015261478881613fed565b9050919050565b600060208201905081810360008301526147a881614010565b9050919050565b600060208201905081810360008301526147c881614033565b9050919050565b600060208201905081810360008301526147e881614056565b9050919050565b6000602082019050818103600083015261480881614079565b9050919050565b600060208201905081810360008301526148288161409c565b9050919050565b60006020820190508181036000830152614848816140bf565b9050919050565b60006020820190508181036000830152614868816140e2565b9050919050565b6000602082019050818103600083015261488881614105565b9050919050565b600060208201905081810360008301526148a881614128565b9050919050565b600060208201905081810360008301526148c88161414b565b9050919050565b600060208201905081810360008301526148e88161416e565b9050919050565b6000602082019050818103600083015261490881614191565b9050919050565b60006020820190508181036000830152614928816141b4565b9050919050565b60006020820190508181036000830152614948816141d7565b9050919050565b60006020820190508181036000830152614968816141fa565b9050919050565b600060208201905081810360008301526149888161421d565b9050919050565b600060208201905081810360008301526149a881614240565b9050919050565b600060208201905081810360008301526149c881614263565b9050919050565b600060208201905081810360008301526149e881614286565b9050919050565b60006020820190508181036000830152614a08816142a9565b9050919050565b60006020820190508181036000830152614a28816142cc565b9050919050565b60006020820190508181036000830152614a48816142ef565b9050919050565b60006020820190508181036000830152614a6881614335565b9050919050565b60006020820190508181036000830152614a8881614358565b9050919050565b60006020820190508181036000830152614aa88161437b565b9050919050565b60006020820190508181036000830152614ac88161439e565b9050919050565b60006020820190508181036000830152614ae8816143c1565b9050919050565b60006020820190508181036000830152614b08816143e4565b9050919050565b60006020820190508181036000830152614b288161442a565b9050919050565b60006020820190508181036000830152614b488161444d565b9050919050565b6000602082019050614b64600083018461447f565b92915050565b6000604082019050614b7f600083018561447f565b614b8c6020830184613e99565b9392505050565b6000604082019050614ba8600083018561447f565b614bb5602083018461447f565b9392505050565b6000614bc6614bd7565b9050614bd28282614ed2565b919050565b6000604051905090565b600067ffffffffffffffff821115614bfc57614bfb614f7b565b5b614c0582614faa565b9050602081019050919050565b600067ffffffffffffffff821115614c2d57614c2c614f7b565b5b614c3682614faa565b9050602081019050919050565b6000819050602082019050919050565b6000819050602082019050919050565b6000819050602082019050919050565b600081519050919050565b600081519050919050565b600081519050919050565b600081519050919050565b600081519050919050565b6000602082019050919050565b6000602082019050919050565b6000602082019050919050565b600082825260208201905092915050565b600082825260208201905092915050565b600082825260208201905092915050565b600081905092915050565b600082825260208201905092915050565b600081905092915050565b6000614d3682614e4f565b9150614d4183614e4f565b9250827fffffffffffffffffffffffffffffffffffffffffffffffffffffffffffffffff03821115614d7657614d75614f4c565b5b828201905092915050565b6000614d8c82614e4f565b9150614d9783614e4f565b9250817fffffffffffffffffffffffffffffffffffffffffffffffffffffffffffffffff0483118215151615614dd057614dcf614f4c565b5b828202905092915050565b6000614de682614e2f565b9050919050565b60008115159050919050565b6000819050919050565b60007fffffffff0000000000000000000000000000000000000000000000000000000082169050919050565b600073ffffffffffffffffffffffffffffffffffffffff82169050919050565b6000819050919050565b600060ff82169050919050565b82818337600083830152505050565b60005b83811015614e93578082015181840152602081019050614e78565b83811115614ea2576000848401525b50505050565b6000614eb382614e4f565b91506000821415614ec757614ec6614f4c565b5b600182039050919050565b614edb82614faa565b810181811067ffffffffffffffff82111715614efa57614ef9614f7b565b5b80604052505050565b6000614f0e82614e4f565b91507fffffffffffffffffffffffffffffffffffffffffffffffffffffffffffffffff821415614f4157614f40614f4c565b5b600182019050919050565b7f4e487b7100000000000000000000000000000000000000000000000000000000600052601160045260246000fd5b7f4e487b7100000000000000000000000000000000000000000000000000000000600052604160045260246000fd5b6000601f19601f8301169050919050565b7f746f6b656e206e6f7420737570706f7274656400000000000000000000000000600082015250565b7f537472696e67733a20686578206c656e67746820696e73756666696369656e74600082015250565b7f6461746174797065206e6f7420656e61626c6564000000000000000000000000600082015250565b7f696e73756666696369656e7420616c6c6f77616e636500000000000000000000600082015250565b7f45524331393637557067726164653a207570677261646520627265616b73206660008201527f7572746865722075706772616465730000000000000000000000000000000000602082015250565b7f6174746573746f72206f6e6c7900000000000000000000000000000000000000600082015250565b7f62617463682073697a652073686f756c64206265206265747765656e2031206160008201527f6e64203900000000000000000000000000000000000000000000000000000000602082015250565b7f6e6f742073616d65206c656e6774680000000000000000000000000000000000600082015250565b7f7472616e73616374696f6e20636f7374203e2024313000000000000000000000600082015250565b7f676f7665726e616e63652061646472657373207a65726f000000000000000000600082015250565b7f61646d696e206f6e6c7900000000000000000000000000000000000000000000600082015250565b7f746f6b656e20616c726561647920617574686f72697a65642f64697361626c6560008201527f6400000000000000000000000000000000000000000000000000000000000000602082015250565b7f416464726573733a20696e73756666696369656e742062616c616e636520666f60008201527f722063616c6c0000000000000000000000000000000000000000000000000000602082015250565b7f74726561737572792061646472657373207a65726f0000000000000000000000600082015250565b7f7061757365722061646472657373207a65726f00000000000000000000000000600082015250565b7f4f7261636c6520446563696d616c73203e203138000000000000000000000000600082015250565b7f496e697469616c697a61626c653a20636f6e747261637420697320616c72656160008201527f647920696e697469616c697a6564000000000000000000000000000000000000602082015250565b7f616c726561647920756e70617573656400000000000000000000000000000000600082015250565b7f6c656e677468206e6f7420657175616c00000000000000000000000000000000600082015250565b7f455243313936373a206e657720696d706c656d656e746174696f6e206973206e60008201527f6f74206120636f6e747261637400000000000000000000000000000000000000602082015250565b7f4552433230206164647265737320696e76616c69640000000000000000000000600082015250565b7f646174615479706520616c7265616479206163746976652f696e616374697665600082015250565b7f7472616e73616374696f6e20636f7374206e6567617469766500000000000000600082015250565b7f416464726573733a2064656c65676174652063616c6c20746f206e6f6e2d636f60008201527f6e74726163740000000000000000000000000000000000000000000000000000602082015250565b7f63616e6e6f742062652030000000000000000000000000000000000000000000600082015250565b7f416464726573733a2063616c6c20746f206e6f6e2d636f6e7472616374000000600082015250565b7f6174746573746f722061646472657373207a65726f0000000000000000000000600082015250565b7f416363657373436f6e74726f6c3a206163636f756e7420000000000000000000600082015250565b7f4f7261636c65206164647265737320696e76616c696400000000000000000000600082015250565b7f5361666545524332303a204552433230206f7065726174696f6e20646964206e60008201527f6f74207375636365656400000000000000000000000000000000000000000000602082015250565b7f706175736572206f6e6c79000000000000000000000000000000000000000000600082015250565b7f616c726561647920706175736564000000000000000000000000000000000000600082015250565b7f7061757365640000000000000000000000000000000000000000000000000000600082015250565b7f747265617375727920616c72656164792073657420746f20746869732061646460008201527f7265737300000000000000000000000000000000000000000000000000000000602082015250565b7f206973206d697373696e6720726f6c6520000000000000000000000000000000600082015250565b7f416363657373436f6e74726f6c3a2063616e206f6e6c792072656e6f756e636560008201527f20726f6c657320666f722073656c660000000000000000000000000000000000602082015250565b7f7472616e73616374696f6e436f737420616c726561647920736574207769746860008201527f20746869732076616c7565000000000000000000000000000000000000000000602082015250565b61575381614ddb565b811461575e57600080fd5b50565b61576a81614ded565b811461577557600080fd5b50565b61578181614df9565b811461578c57600080fd5b50565b61579881614e03565b81146157a357600080fd5b50565b6157af81614e4f565b81146157ba57600080fd5b50565b6157c681614e59565b81146157d157600080fd5b5056fe416464726573733a206c6f772d6c6576656c2064656c65676174652063616c6c206661696c6564a26469706673582212200a40b84284fba07afcdd2b2b3cfa4fcb5247e80f96c61c561cf13a97ae5fdd9964736f6c63430008020033",
  "linkReferences": {},
  "deployedLinkReferences": {}
}