{
  "_format": "hh-sol-artifact-1",
  "contractName": "Ky0xGovernance",
  "sourceName": "contracts/Ky0xGovernance.sol",
  "abi": [
    {
      "anonymous": false,
      "inputs": [
        {
          "indexed": false,
          "internalType": "address",
          "name": "_erc20",
          "type": "address"
        },
        {
          "indexed": false,
          "internalType": "bool",
          "name": "_isAllowed",
          "type": "bool"
        },
        {
          "indexed": false,
          "internalType": "address",
          "name": "_oracleFeed",
          "type": "address"
        }
      ],
      "name": "AllowTokenPaymentEvent",
      "type": "event"
    },
    {
      "anonymous": false,
      "inputs": [
        {
          "indexed": false,
          "internalType": "uint256",
          "name": "_dataType",
          "type": "uint256"
        },
        {
          "indexed": false,
          "internalType": "bool",
          "name": "_isActive",
          "type": "bool"
        }
      ],
      "name": "DataTypeEvent",
      "type": "event"
    },
    {
      "anonymous": false,
      "inputs": [],
      "name": "PausedEvent",
      "type": "event"
    },
    {
      "anonymous": false,
      "inputs": [
        {
          "indexed": true,
          "internalType": "bytes32",
          "name": "role",
          "type": "bytes32"
        },
        {
          "indexed": true,
          "internalType": "bytes32",
          "name": "previousAdminRole",
          "type": "bytes32"
        },
        {
          "indexed": true,
          "internalType": "bytes32",
          "name": "newAdminRole",
          "type": "bytes32"
        }
      ],
      "name": "RoleAdminChanged",
      "type": "event"
    },
    {
      "anonymous": false,
      "inputs": [
        {
          "indexed": true,
          "internalType": "bytes32",
          "name": "role",
          "type": "bytes32"
        },
        {
          "indexed": true,
          "internalType": "address",
          "name": "account",
          "type": "address"
        },
        {
          "indexed": true,
          "internalType": "address",
          "name": "sender",
          "type": "address"
        }
      ],
      "name": "RoleGranted",
      "type": "event"
    },
    {
      "anonymous": false,
      "inputs": [
        {
          "indexed": true,
          "internalType": "bytes32",
          "name": "role",
          "type": "bytes32"
        },
        {
          "indexed": true,
          "internalType": "address",
          "name": "account",
          "type": "address"
        },
        {
          "indexed": true,
          "internalType": "address",
          "name": "sender",
          "type": "address"
        }
      ],
      "name": "RoleRevoked",
      "type": "event"
    },
    {
      "anonymous": false,
      "inputs": [
        {
          "indexed": false,
          "internalType": "uint256",
          "name": "_oldCost",
          "type": "uint256"
        },
        {
          "indexed": false,
          "internalType": "uint256",
          "name": "_newCost",
          "type": "uint256"
        }
      ],
      "name": "TransactionCostUpdateEvent",
      "type": "event"
    },
    {
      "anonymous": false,
      "inputs": [
        {
          "indexed": false,
          "internalType": "address",
          "name": "_oldTreasury",
          "type": "address"
        },
        {
          "indexed": false,
          "internalType": "address",
          "name": "_newTreasury",
          "type": "address"
        }
      ],
      "name": "TreasuryUpdateEvent",
      "type": "event"
    },
    {
      "anonymous": false,
      "inputs": [],
      "name": "UnpausedEvent",
      "type": "event"
    },
    {
      "inputs": [],
      "name": "DEFAULT_ADMIN_ROLE",
      "outputs": [
        {
          "internalType": "bytes32",
          "name": "",
          "type": "bytes32"
        }
      ],
      "stateMutability": "view",
      "type": "function"
    },
    {
      "inputs": [
        {
          "internalType": "address",
          "name": "_erc20",
          "type": "address"
        },
        {
          "internalType": "bool",
          "name": "_isAllowed",
          "type": "bool"
        },
        {
          "internalType": "address",
          "name": "_oracleFeed",
          "type": "address"
        }
      ],
      "name": "allowTokenPayment",
      "outputs": [],
      "stateMutability": "nonpayable",
      "type": "function"
    },
    {
      "inputs": [
        {
          "internalType": "uint256",
          "name": "",
          "type": "uint256"
        }
      ],
      "name": "dataTypesMap",
      "outputs": [
        {
          "internalType": "bool",
          "name": "",
          "type": "bool"
        }
      ],
      "stateMutability": "view",
      "type": "function"
    },
    {
      "inputs": [
        {
          "internalType": "bytes32",
          "name": "role",
          "type": "bytes32"
        }
      ],
      "name": "getRoleAdmin",
      "outputs": [
        {
          "internalType": "bytes32",
          "name": "",
          "type": "bytes32"
        }
      ],
      "stateMutability": "view",
      "type": "function"
    },
    {
      "inputs": [
        {
          "internalType": "bytes32",
          "name": "role",
          "type": "bytes32"
        },
        {
          "internalType": "address",
          "name": "account",
          "type": "address"
        }
      ],
      "name": "grantRole",
      "outputs": [],
      "stateMutability": "nonpayable",
      "type": "function"
    },
    {
      "inputs": [
        {
          "internalType": "bytes32",
          "name": "role",
          "type": "bytes32"
        },
        {
          "internalType": "address",
          "name": "account",
          "type": "address"
        }
      ],
      "name": "hasRole",
      "outputs": [
        {
          "internalType": "bool",
          "name": "",
          "type": "bool"
        }
      ],
      "stateMutability": "view",
      "type": "function"
    },
    {
      "inputs": [],
      "name": "pause",
      "outputs": [],
      "stateMutability": "nonpayable",
      "type": "function"
    },
    {
      "inputs": [],
      "name": "paused",
      "outputs": [
        {
          "internalType": "bool",
          "name": "",
          "type": "bool"
        }
      ],
      "stateMutability": "view",
      "type": "function"
    },
    {
      "inputs": [
        {
          "internalType": "bytes32",
          "name": "role",
          "type": "bytes32"
        },
        {
          "internalType": "address",
          "name": "account",
          "type": "address"
        }
      ],
      "name": "renounceRole",
      "outputs": [],
      "stateMutability": "nonpayable",
      "type": "function"
    },
    {
      "inputs": [
        {
          "internalType": "bytes32",
          "name": "role",
          "type": "bytes32"
        },
        {
          "internalType": "address",
          "name": "account",
          "type": "address"
        }
      ],
      "name": "revokeRole",
      "outputs": [],
      "stateMutability": "nonpayable",
      "type": "function"
    },
    {
      "inputs": [
        {
          "internalType": "uint256",
          "name": "_dataType",
          "type": "uint256"
        },
        {
          "internalType": "bool",
          "name": "_isActive",
          "type": "bool"
        }
      ],
      "name": "setDataTypeStatus",
      "outputs": [],
      "stateMutability": "nonpayable",
      "type": "function"
    },
    {
      "inputs": [
        {
          "internalType": "uint256",
          "name": "_transactionCostUSD",
          "type": "uint256"
        }
      ],
      "name": "setTransactionCostUSD",
      "outputs": [],
      "stateMutability": "nonpayable",
      "type": "function"
    },
    {
      "inputs": [
        {
          "internalType": "address",
          "name": "_treasury",
          "type": "address"
        }
      ],
      "name": "setTreasury",
      "outputs": [],
      "stateMutability": "nonpayable",
      "type": "function"
    },
    {
      "inputs": [
        {
          "internalType": "bytes4",
          "name": "interfaceId",
          "type": "bytes4"
        }
      ],
      "name": "supportsInterface",
      "outputs": [
        {
          "internalType": "bool",
          "name": "",
          "type": "bool"
        }
      ],
      "stateMutability": "view",
      "type": "function"
    },
    {
      "inputs": [
        {
          "internalType": "address",
          "name": "",
          "type": "address"
        }
      ],
      "name": "tokenAllowedPaymentMap",
      "outputs": [
        {
          "internalType": "bool",
          "name": "",
          "type": "bool"
        }
      ],
      "stateMutability": "view",
      "type": "function"
    },
    {
      "inputs": [],
      "name": "transactionCostUSD",
      "outputs": [
        {
          "internalType": "uint256",
          "name": "",
          "type": "uint256"
        }
      ],
      "stateMutability": "view",
      "type": "function"
    },
    {
      "inputs": [],
      "name": "treasury",
      "outputs": [
        {
          "internalType": "address",
          "name": "",
          "type": "address"
        }
      ],
      "stateMutability": "view",
      "type": "function"
    },
    {
      "inputs": [],
      "name": "unpause",
      "outputs": [],
      "stateMutability": "nonpayable",
      "type": "function"
    }
  ],
  "bytecode": "0x608060405234801561001057600080fd5b506127c7806100206000396000f3fe608060405234801561001057600080fd5b50600436106101165760003560e01c806361d027b3116100a2578063a217fddf11610071578063a217fddf146102cd578063d547741f146102eb578063deb57f4414610307578063f0f4426014610323578063fbbe800c1461033f57610116565b806361d027b314610245578063703426c1146102635780638456cb591461029357806391d148541461029d57610116565b806336568abe116100e957806336568abe146101b55780633f4ba83a146101d15780634a585288146101db578063509261321461020b5780635c975abb1461022757610116565b806301ffc9a71461011b5780630cff104a1461014b578063248a9ca3146101695780632f2ff15d14610199575b600080fd5b61013560048036038101906101309190611921565b61035b565b6040516101429190611e13565b60405180910390f35b6101536103d5565b604051610160919061206b565b60405180910390f35b610183600480360381019061017e91906118bc565b6103db565b6040516101909190611e2e565b60405180910390f35b6101b360048036038101906101ae91906118e5565b6103fa565b005b6101cf60048036038101906101ca91906118e5565b610423565b005b6101d96104a6565b005b6101f560048036038101906101f0919061198b565b6105ae565b6040516102029190611e13565b60405180910390f35b610225600480360381019061022091906119dd565b6105ce565b005b61022f6106e9565b60405161023c9190611e13565b60405180910390f35b61024d6106fc565b60405161025a9190611d98565b60405180910390f35b61027d60048036038101906102789190611844565b610722565b60405161028a9190611e13565b60405180910390f35b61029b610742565b005b6102b760048036038101906102b291906118e5565b61084a565b6040516102c49190611e13565b60405180910390f35b6102d56108b4565b6040516102e29190611e2e565b60405180910390f35b610305600480360381019061030091906118e5565b6108bb565b005b610321600480360381019061031c919061198b565b6108e4565b005b61033d60048036038101906103389190611844565b610a50565b005b6103596004803603810190610354919061186d565b610c42565b005b60007f7965db0b000000000000000000000000000000000000000000000000000000007bffffffffffffffffffffffffffffffffffffffffffffffffffffffff1916827bffffffffffffffffffffffffffffffffffffffffffffffffffffffff191614806103ce57506103cd8261117f565b5b9050919050565b60075481565b6000806000838152602001908152602001600020600101549050919050565b610403826103db565b6104148161040f6111e9565b6111f1565b61041e838361128e565b505050565b61042b6111e9565b73ffffffffffffffffffffffffffffffffffffffff168173ffffffffffffffffffffffffffffffffffffffff1614610498576040517f08c379a000000000000000000000000000000000000000000000000000000000815260040161048f9061202b565b60405180910390fd5b6104a2828261136e565b5050565b6104d07f65d7a28e3265b37a6474929f336521b332c1681b933f6cb9f3376673440d862a3361084a565b61050f576040517f08c379a000000000000000000000000000000000000000000000000000000000815260040161050690611fcb565b60405180910390fd5b60011515600860009054906101000a900460ff16151514610565576040517f08c379a000000000000000000000000000000000000000000000000000000000815260040161055c90611f2b565b60405180910390fd5b6000600860006101000a81548160ff0219169083151502179055507f06816474b0021c4d07945d434c3c6403f2e1f70120c8c7b43993bd36805d03ef60405160405180910390a1565b60026020528060005260406000206000915054906101000a900460ff1681565b6105db6000801b3361084a565b61061a576040517f08c379a000000000000000000000000000000000000000000000000000000000815260040161061190611eab565b60405180910390fd5b8015156002600084815260200190815260200160002060009054906101000a900460ff1615151415610681576040517f08c379a000000000000000000000000000000000000000000000000000000000815260040161067890611f6b565b60405180910390fd5b806002600084815260200190815260200160002060006101000a81548160ff0219169083151502179055507fe396a5aa5e45159af8cfc7f403d340c685f7552874ea096eac63bf4c1f6dd59f82826040516106dd929190612086565b60405180910390a15050565b600860009054906101000a900460ff1681565b600660009054906101000a900473ffffffffffffffffffffffffffffffffffffffff1681565b60046020528060005260406000206000915054906101000a900460ff1681565b61076c7f65d7a28e3265b37a6474929f336521b332c1681b933f6cb9f3376673440d862a3361084a565b6107ab576040517f08c379a00000000000000000000000000000000000000000000000000000000081526004016107a290611fcb565b60405180910390fd5b60001515600860009054906101000a900460ff16151514610801576040517f08c379a00000000000000000000000000000000000000000000000000000000081526004016107f890611feb565b60405180910390fd5b6001600860006101000a81548160ff0219169083151502179055507f7a81fbd03590051e5303bffa6481eb76ac6081d4a2d96aca8b1af9b5c8028fed60405160405180910390a1565b600080600084815260200190815260200160002060000160008373ffffffffffffffffffffffffffffffffffffffff1673ffffffffffffffffffffffffffffffffffffffff16815260200190815260200160002060009054906101000a900460ff16905092915050565b6000801b81565b6108c4826103db565b6108d5816108d06111e9565b6111f1565b6108df838361136e565b505050565b6108f16000801b3361084a565b610930576040517f08c379a000000000000000000000000000000000000000000000000000000000815260040161092790611eab565b60405180910390fd5b806007541415610975576040517f08c379a000000000000000000000000000000000000000000000000000000000815260040161096c9061204b565b60405180910390fd5b678ac7230489e8000081106109bf576040517f08c379a00000000000000000000000000000000000000000000000000000000081526004016109b690611e8b565b60405180910390fd5b6000811015610a03576040517f08c379a00000000000000000000000000000000000000000000000000000000081526004016109fa90611f8b565b60405180910390fd5b60006007549050816007819055507f8b225804c60832661169b8ba575633ea54b5942c8e9afbef8f0ac6721202c9d581600754604051610a449291906120af565b60405180910390a15050565b610a5d6000801b3361084a565b610a9c576040517f08c379a0000000000000000000000000000000000000000000000000000000008152600401610a9390611eab565b60405180910390fd5b600073ffffffffffffffffffffffffffffffffffffffff168173ffffffffffffffffffffffffffffffffffffffff161415610b0c576040517f08c379a0000000000000000000000000000000000000000000000000000000008152600401610b0390611eeb565b60405180910390fd5b600660009054906101000a900473ffffffffffffffffffffffffffffffffffffffff1673ffffffffffffffffffffffffffffffffffffffff168173ffffffffffffffffffffffffffffffffffffffff161415610b9d576040517f08c379a0000000000000000000000000000000000000000000000000000000008152600401610b949061200b565b60405180910390fd5b6000600660009054906101000a900473ffffffffffffffffffffffffffffffffffffffff16905081600660006101000a81548173ffffffffffffffffffffffffffffffffffffffff021916908373ffffffffffffffffffffffffffffffffffffffff1602179055507fd3249cb37ead034d851af87ea663cc239fc20e801a85f4d311cb77edf4151e1d8183604051610c36929190611db3565b60405180910390a15050565b610c4f6000801b3361084a565b610c8e576040517f08c379a0000000000000000000000000000000000000000000000000000000008152600401610c8590611eab565b60405180910390fd5b811515600460008573ffffffffffffffffffffffffffffffffffffffff1673ffffffffffffffffffffffffffffffffffffffff16815260200190815260200160002060009054906101000a900460ff161515141580610d785750600560008473ffffffffffffffffffffffffffffffffffffffff1673ffffffffffffffffffffffffffffffffffffffff16815260200190815260200160002060009054906101000a900473ffffffffffffffffffffffffffffffffffffffff1673ffffffffffffffffffffffffffffffffffffffff168173ffffffffffffffffffffffffffffffffffffffff1614155b610db7576040517f08c379a0000000000000000000000000000000000000000000000000000000008152600401610dae90611ecb565b60405180910390fd5b600073ffffffffffffffffffffffffffffffffffffffff168373ffffffffffffffffffffffffffffffffffffffff161415610e27576040517f08c379a0000000000000000000000000000000000000000000000000000000008152600401610e1e90611f4b565b60405180910390fd5b600073ffffffffffffffffffffffffffffffffffffffff168173ffffffffffffffffffffffffffffffffffffffff161415610e97576040517f08c379a0000000000000000000000000000000000000000000000000000000008152600401610e8e90611fab565b60405180910390fd5b6000839050600082905060128173ffffffffffffffffffffffffffffffffffffffff1663313ce5676040518163ffffffff1660e01b815260040160206040518083038186803b158015610ee957600080fd5b505afa158015610efd573d6000803e3d6000fd5b505050506040513d601f19601f82011682018060405250810190610f219190611a19565b60ff161115610f65576040517f08c379a0000000000000000000000000000000000000000000000000000000008152600401610f5c90611f0b565b60405180910390fd5b8073ffffffffffffffffffffffffffffffffffffffff16637284e4166040518163ffffffff1660e01b815260040160006040518083038186803b158015610fab57600080fd5b505afa158015610fbf573d6000803e3d6000fd5b505050506040513d6000823e3d601f19601f82011682018060405250810190610fe8919061194a565b508173ffffffffffffffffffffffffffffffffffffffff166318160ddd6040518163ffffffff1660e01b815260040160206040518083038186803b15801561102f57600080fd5b505afa158015611043573d6000803e3d6000fd5b505050506040513d601f19601f8201168201806040525081019061106791906119b4565b5083600460008773ffffffffffffffffffffffffffffffffffffffff1673ffffffffffffffffffffffffffffffffffffffff16815260200190815260200160002060006101000a81548160ff02191690831515021790555080600560008773ffffffffffffffffffffffffffffffffffffffff1673ffffffffffffffffffffffffffffffffffffffff16815260200190815260200160002060006101000a81548173ffffffffffffffffffffffffffffffffffffffff021916908373ffffffffffffffffffffffffffffffffffffffff1602179055507f9bc9087dc26a9fb86164103b1f1dfad138792783f9e85d3883751bc78f492b6c85858560405161117093929190611ddc565b60405180910390a15050505050565b60007f01ffc9a7000000000000000000000000000000000000000000000000000000007bffffffffffffffffffffffffffffffffffffffffffffffffffffffff1916827bffffffffffffffffffffffffffffffffffffffffffffffffffffffff1916149050919050565b600033905090565b6111fb828261084a565b61128a576112208173ffffffffffffffffffffffffffffffffffffffff16601461144f565b61122e8360001c602061144f565b60405160200161123f929190611d5e565b6040516020818303038152906040526040517f08c379a00000000000000000000000000000000000000000000000000000000081526004016112819190611e49565b60405180910390fd5b5050565b611298828261084a565b61136a57600160008084815260200190815260200160002060000160008373ffffffffffffffffffffffffffffffffffffffff1673ffffffffffffffffffffffffffffffffffffffff16815260200190815260200160002060006101000a81548160ff02191690831515021790555061130f6111e9565b73ffffffffffffffffffffffffffffffffffffffff168173ffffffffffffffffffffffffffffffffffffffff16837f2f8788117e7eff1d82e926ec794901d17c78024a50270940304540a733656f0d60405160405180910390a45b5050565b611378828261084a565b1561144b57600080600084815260200190815260200160002060000160008373ffffffffffffffffffffffffffffffffffffffff1673ffffffffffffffffffffffffffffffffffffffff16815260200190815260200160002060006101000a81548160ff0219169083151502179055506113f06111e9565b73ffffffffffffffffffffffffffffffffffffffff168173ffffffffffffffffffffffffffffffffffffffff16837ff6391f5c32d9c69d2a47ea670b442974b53935d1edc7fd64eb21e047a839171b60405160405180910390a45b5050565b60606000600283600261146291906121ab565b61146c9190612155565b67ffffffffffffffff8111156114ab577f4e487b7100000000000000000000000000000000000000000000000000000000600052604160045260246000fd5b6040519080825280601f01601f1916602001820160405280156114dd5781602001600182028036833780820191505090505b5090507f30000000000000000000000000000000000000000000000000000000000000008160008151811061153b577f4e487b7100000000000000000000000000000000000000000000000000000000600052603260045260246000fd5b60200101907effffffffffffffffffffffffffffffffffffffffffffffffffffffffffffff1916908160001a9053507f7800000000000000000000000000000000000000000000000000000000000000816001815181106115c5577f4e487b7100000000000000000000000000000000000000000000000000000000600052603260045260246000fd5b60200101907effffffffffffffffffffffffffffffffffffffffffffffffffffffffffffff1916908160001a9053506000600184600261160591906121ab565b61160f9190612155565b90505b60018111156116fb577f3031323334353637383961626364656600000000000000000000000000000000600f861660108110611677577f4e487b7100000000000000000000000000000000000000000000000000000000600052603260045260246000fd5b1a60f81b8282815181106116b4577f4e487b7100000000000000000000000000000000000000000000000000000000600052603260045260246000fd5b60200101907effffffffffffffffffffffffffffffffffffffffffffffffffffffffffffff1916908160001a905350600485901c9450806116f4906122c3565b9050611612565b506000841461173f576040517f08c379a000000000000000000000000000000000000000000000000000000000815260040161173690611e6b565b60405180910390fd5b8091505092915050565b600061175c611757846120fd565b6120d8565b90508281526020810184848401111561177457600080fd5b61177f848285612290565b509392505050565b60008135905061179681612707565b92915050565b6000813590506117ab8161271e565b92915050565b6000813590506117c081612735565b92915050565b6000813590506117d58161274c565b92915050565b600082601f8301126117ec57600080fd5b81516117fc848260208601611749565b91505092915050565b60008135905061181481612763565b92915050565b60008151905061182981612763565b92915050565b60008151905061183e8161277a565b92915050565b60006020828403121561185657600080fd5b600061186484828501611787565b91505092915050565b60008060006060848603121561188257600080fd5b600061189086828701611787565b93505060206118a18682870161179c565b92505060406118b286828701611787565b9150509250925092565b6000602082840312156118ce57600080fd5b60006118dc848285016117b1565b91505092915050565b600080604083850312156118f857600080fd5b6000611906858286016117b1565b925050602061191785828601611787565b9150509250929050565b60006020828403121561193357600080fd5b6000611941848285016117c6565b91505092915050565b60006020828403121561195c57600080fd5b600082015167ffffffffffffffff81111561197657600080fd5b611982848285016117db565b91505092915050565b60006020828403121561199d57600080fd5b60006119ab84828501611805565b91505092915050565b6000602082840312156119c657600080fd5b60006119d48482850161181a565b91505092915050565b600080604083850312156119f057600080fd5b60006119fe85828601611805565b9250506020611a0f8582860161179c565b9150509250929050565b600060208284031215611a2b57600080fd5b6000611a398482850161182f565b91505092915050565b611a4b81612205565b82525050565b611a5a81612217565b82525050565b611a6981612223565b82525050565b6000611a7a8261212e565b611a848185612139565b9350611a94818560208601612290565b611a9d8161237c565b840191505092915050565b6000611ab38261212e565b611abd818561214a565b9350611acd818560208601612290565b80840191505092915050565b6000611ae6602083612139565b9150611af18261238d565b602082019050919050565b6000611b09601683612139565b9150611b14826123b6565b602082019050919050565b6000611b2c600a83612139565b9150611b37826123df565b602082019050919050565b6000611b4f602183612139565b9150611b5a82612408565b604082019050919050565b6000611b72601583612139565b9150611b7d82612457565b602082019050919050565b6000611b95601483612139565b9150611ba082612480565b602082019050919050565b6000611bb8601083612139565b9150611bc3826124a9565b602082019050919050565b6000611bdb601583612139565b9150611be6826124d2565b602082019050919050565b6000611bfe602083612139565b9150611c09826124fb565b602082019050919050565b6000611c21601983612139565b9150611c2c82612524565b602082019050919050565b6000611c4460178361214a565b9150611c4f8261254d565b601782019050919050565b6000611c67601683612139565b9150611c7282612576565b602082019050919050565b6000611c8a600b83612139565b9150611c958261259f565b602082019050919050565b6000611cad600e83612139565b9150611cb8826125c8565b602082019050919050565b6000611cd0602483612139565b9150611cdb826125f1565b604082019050919050565b6000611cf360118361214a565b9150611cfe82612640565b601182019050919050565b6000611d16602f83612139565b9150611d2182612669565b604082019050919050565b6000611d39602b83612139565b9150611d44826126b8565b604082019050919050565b611d5881612279565b82525050565b6000611d6982611c37565b9150611d758285611aa8565b9150611d8082611ce6565b9150611d8c8284611aa8565b91508190509392505050565b6000602082019050611dad6000830184611a42565b92915050565b6000604082019050611dc86000830185611a42565b611dd56020830184611a42565b9392505050565b6000606082019050611df16000830186611a42565b611dfe6020830185611a51565b611e0b6040830184611a42565b949350505050565b6000602082019050611e286000830184611a51565b92915050565b6000602082019050611e436000830184611a60565b92915050565b60006020820190508181036000830152611e638184611a6f565b905092915050565b60006020820190508181036000830152611e8481611ad9565b9050919050565b60006020820190508181036000830152611ea481611afc565b9050919050565b60006020820190508181036000830152611ec481611b1f565b9050919050565b60006020820190508181036000830152611ee481611b42565b9050919050565b60006020820190508181036000830152611f0481611b65565b9050919050565b60006020820190508181036000830152611f2481611b88565b9050919050565b60006020820190508181036000830152611f4481611bab565b9050919050565b60006020820190508181036000830152611f6481611bce565b9050919050565b60006020820190508181036000830152611f8481611bf1565b9050919050565b60006020820190508181036000830152611fa481611c14565b9050919050565b60006020820190508181036000830152611fc481611c5a565b9050919050565b60006020820190508181036000830152611fe481611c7d565b9050919050565b6000602082019050818103600083015261200481611ca0565b9050919050565b6000602082019050818103600083015261202481611cc3565b9050919050565b6000602082019050818103600083015261204481611d09565b9050919050565b6000602082019050818103600083015261206481611d2c565b9050919050565b60006020820190506120806000830184611d4f565b92915050565b600060408201905061209b6000830185611d4f565b6120a86020830184611a51565b9392505050565b60006040820190506120c46000830185611d4f565b6120d16020830184611d4f565b9392505050565b60006120e26120f3565b90506120ee82826122ed565b919050565b6000604051905090565b600067ffffffffffffffff8211156121185761211761234d565b5b6121218261237c565b9050602081019050919050565b600081519050919050565b600082825260208201905092915050565b600081905092915050565b600061216082612279565b915061216b83612279565b9250827fffffffffffffffffffffffffffffffffffffffffffffffffffffffffffffffff038211156121a05761219f61231e565b5b828201905092915050565b60006121b682612279565b91506121c183612279565b9250817fffffffffffffffffffffffffffffffffffffffffffffffffffffffffffffffff04831182151516156121fa576121f961231e565b5b828202905092915050565b600061221082612259565b9050919050565b60008115159050919050565b6000819050919050565b60007fffffffff0000000000000000000000000000000000000000000000000000000082169050919050565b600073ffffffffffffffffffffffffffffffffffffffff82169050919050565b6000819050919050565b600060ff82169050919050565b60005b838110156122ae578082015181840152602081019050612293565b838111156122bd576000848401525b50505050565b60006122ce82612279565b915060008214156122e2576122e161231e565b5b600182039050919050565b6122f68261237c565b810181811067ffffffffffffffff821117156123155761231461234d565b5b80604052505050565b7f4e487b7100000000000000000000000000000000000000000000000000000000600052601160045260246000fd5b7f4e487b7100000000000000000000000000000000000000000000000000000000600052604160045260246000fd5b6000601f19601f8301169050919050565b7f537472696e67733a20686578206c656e67746820696e73756666696369656e74600082015250565b7f7472616e73616374696f6e20636f7374203e2024313000000000000000000000600082015250565b7f61646d696e206f6e6c7900000000000000000000000000000000000000000000600082015250565b7f746f6b656e20616c726561647920617574686f72697a65642f64697361626c6560008201527f6400000000000000000000000000000000000000000000000000000000000000602082015250565b7f74726561737572792061646472657373207a65726f0000000000000000000000600082015250565b7f4f7261636c6520446563696d616c73203e203138000000000000000000000000600082015250565b7f616c726561647920756e70617573656400000000000000000000000000000000600082015250565b7f4552433230206164647265737320696e76616c69640000000000000000000000600082015250565b7f646174615479706520616c7265616479206163746976652f696e616374697665600082015250565b7f7472616e73616374696f6e20636f7374206e6567617469766500000000000000600082015250565b7f416363657373436f6e74726f6c3a206163636f756e7420000000000000000000600082015250565b7f4f7261636c65206164647265737320696e76616c696400000000000000000000600082015250565b7f706175736572206f6e6c79000000000000000000000000000000000000000000600082015250565b7f616c726561647920706175736564000000000000000000000000000000000000600082015250565b7f747265617375727920616c72656164792073657420746f20746869732061646460008201527f7265737300000000000000000000000000000000000000000000000000000000602082015250565b7f206973206d697373696e6720726f6c6520000000000000000000000000000000600082015250565b7f416363657373436f6e74726f6c3a2063616e206f6e6c792072656e6f756e636560008201527f20726f6c657320666f722073656c660000000000000000000000000000000000602082015250565b7f7472616e73616374696f6e436f737420616c726561647920736574207769746860008201527f20746869732076616c7565000000000000000000000000000000000000000000602082015250565b61271081612205565b811461271b57600080fd5b50565b61272781612217565b811461273257600080fd5b50565b61273e81612223565b811461274957600080fd5b50565b6127558161222d565b811461276057600080fd5b50565b61276c81612279565b811461277757600080fd5b50565b61278381612283565b811461278e57600080fd5b5056fea2646970667358221220706174a7bcdc37b5a92b8b455bbdd6b61fd35cb860b325fd8d2fbdfdb6c6118964736f6c63430008020033",
  "linkReferences": {},
  "deployedLinkReferences": {}
}